:100000000C9434020C947B020C947B020C947B02C3
:100010000C947B020C947B020C947B020C947B026C
:100020000C947B020C947B020C94BE1E0C94901FCB
:100030000C94E2190C947B020C947B020C947B02CE
:100040000C947B020C947B020C947B020C947B023C
:100050000C947B020C943B1A0C947B020C947B0254
:100060000C947B020C947B020C947B020C947B021C
:100070000C947B020C947B020C947B020C947B020C
:100080000C947B020C947B020C947B020C947B02FC
:100090000C947B020C947B020C947B020C947B02EC
:1000A0000C947B020C947B020C947B02FE05FE05F3
:1000B000300630067D069B06AF07AF07A6063F0752
:1000C000500750074F084F08610861085808610839
:1000D000610861084F084F085D08610861085D0804
:1000E000FD1F24201C2124201C21702093201C2172
:1000F000EA20F92068747470733A2F2F716D6B2E9B
:10010000666D2F0A00514D4B20697320746865207D
:1001100062657374207468696E6720657665722104
:100120000029001E001F00200021002200230024BF
:10013000002500260027002D002E002A004A002B53
:100140000014001A000800150017001C0018000C0D
:1001500000120013002F00300031004B0039000462
:10016000001600070009000A000B000D000E000F2A
:100170000033003400000028004E00E1001D001B89
:100180000006001900050011001000360037003885
:10019000000000E50052004D00E000E300E2000036
:1001A0000000002C000000000000000151E40000ED
:1001B00000500051004F00005C3A003B003C003D05
:1001C000003E003F00400041004200430044004523
:1001D000004C0001000100010001000100010001CC
:1001E0000001000100010001000100010001000107
:1001F00000010001000100010001000100010001F7
:1002000000010001000100010001000000010001E7
:1002100000010001000100010001000100010001D6
:1002200000010001000100000001000100010001C7
:1002300000010001000000000001000000000000BB
:1002400000010001000000010001000100000000A9
:1002500000000000002A2B28000000000000000021
:10026000000000000000000029000000002C1E34E7
:1002700020212224342627252E362D3738271E1FED
:10028000202122232425263333362E37381F040518
:10029000060708090A0B0C0D0E0F10111213141586
:1002A000161718191A1B1C1D2F3130232D35040564
:1002B000060708090A0B0C0D0E0F10111213141566
:1002C000161718191A1B1C1D2F3130354C00000051
:1002D000000000000000000000000000000000001E
:1002E000000000000000000000000000000000000E
:1002F000007E0F00D4FFFFFFC7000000780E034D03
:100300000065006F00770036003500000012036DB5
:100310000072006E0069006E00680076006E0000DA
:10032000000403090409023B00020100A0FA0904C9
:100330000000010301010009211101000122400018
:100340000705810308000A090401000103000000F9
:1003500009211101000122B6000705820320000ACD
:100360001201000200000008646E364D0100010217
:10037000000105010902A10185020901A100050989
:10038000190129081500250195087501810205014B
:10039000093009311581257F9502750881060938D4
:1003A0001581257F950175088106050C0A3802150F
:1003B00081257F950175088106C0C005010980A1CE
:1003C00001850319012AB700150126B700950175AB
:1003D000108100C0050C0901A101850419012AA0A2
:1003E00002150126A002950175108100C0050109C2
:1003F00006A1018505050719E029E71500250195E6
:1004000008750181020507190029EF1500250195DE
:10041000F0750181020508190129059505750191FD
:1004200002950175039101C005010906A1010507A7
:1004300019E029E71500250195087501810295014C
:10044000750881010507190029FF150026FF009591
:1004500006750881000508190129059505750191A2
:1004600002950175039101C011241FBECFEFDAE0A0
:10047000DEBFCDBF04B603FE27C08091A1029091DC
:10048000A202A091A302B091A4028730904BA74092
:10049000B04BD1F41092A1021092A2021092A302CA
:1004A0001092A40214BE84B7877F84BF0FB6F8945D
:1004B000A895809160008861809360001092600030
:1004C0000FBEE0E0F8E3099511E0A0E0B1E0EEE94D
:1004D000F3E402C005900D92AC38B107D9F722E0E1
:1004E000ACE8B1E001C01D92A13AB207E1F70E9469
:1004F000A2130C94CD210C94000083362DE59207B5
:1005000021F084369D4541F00FC0FB018281882394
:1005100059F085E091E006C0FB018281882321F03B
:1005200084EF90E00E94230481E0089581E0089523
:100530000C947D0208950C949A021F93CF93DF933D
:1005400000D000D01F92CDB7DEB749835A836B83AA
:1005500030918E0189819A81311114C0662359F03E
:10056000222349F00E94F309182F682F89819A816C
:100570000E949C0903C00E94C709182F69817A81D3
:10058000812F04C00E94F30969817A810F900F9036
:100590000F900F900F90DF91CF911F910C9412113B
:1005A000FC01262F408151816281738184810C94EA
:1005B0009D0281E00895CF93DF93EC0160E00E94FB
:1005C000D002BE01DF91CF910C949B020E941B12BE
:1005D0000E942D040C9458120C94541208950E94F9
:1005E0003D080E94EE022FEF84E39CE02150804002
:1005F0009040E1F700C000000C94611A0F931F9324
:10060000CF93DF938C0161E00E94D002EC01B8012E
:100610000E9498028823F1F1B801CE010E94B3161E
:100620008823C1F1B801CE010E940517882391F1FA
:10063000B801CE010E943718882361F1F801828148
:10064000882309F1CB358DE5D807C1F050F4C115E9
:10065000FCE5DF0781F0CF3DDC45A9F40E94040FE3
:1006600019C0CC35EDE5DE0761F0CD35DD4559F437
:100670000E94950D08C00E94EF020CC00E949E0DC2
:1006800002C00E94A10DC801DF91CF911F910F916F
:100690000C94960280E0DF91CF911F910F91089505
:1006A000DF92EF92FF920F931F93CF93DF93E82F88
:1006B000F0E0E35BFD4FD490282F269526952695F4
:1006C00030E0F901E351FD4F0491877010E0082EEE
:1006D00002C0159507950A94E2F701701127F901F8
:1006E000E352FD4FE490F12C082E02C0F594E794FC
:1006F0000A94E2F791E0E922FF24F901E353FD4F68
:10070000C491D0E002C0D595C7958A95E2F7C17033
:10071000DD270115110519F081EE0E948704E1140F
:10072000F10419F086EE0E9487048D2D0E94B00519
:10073000EF2819F086EE0E943105012B19F081EEA9
:100740000E943105CD2B51F08CE2DF91CF911F91AA
:100750000F91FF90EF90DF900C94B005DF91CF9157
:100760001F910F91FF90EF90DF900895EF92FF920D
:100770000F931F93CF93DF938C01F62E8AE0E82E20
:10078000F8018491882309F457C0813009F042C0F0
:10079000E8012196FE018491813031F42196FE0119
:1007A00084910E94B00539C0823039F4E801229664
:1007B000FE0184910E94870430C0833039F4E8013F
:1007C0002296FE0184910E94310527C0843029F5CC
:1007D000E8012296FE01249180E090E030E0205371
:1007E00031092A30310560F4E89EA001E99E500DE0
:1007F0001124C901840F951F2196FE012491EECF8B
:10080000009759F0EFE9FFE03197F1F700C00000E1
:100810000197F6CF0E945003E8018E010F5F1F4F32
:100820008F2D882309F4ACCFEFE9FFE03197F1F782
:1008300000C000008150F5CFDF91CF911F910F9143
:10084000FF90EF90089560E00C94B60308950C9427
:10085000260481E008950C9429040895CF93C82FAD
:100860000E9427048C2F0E942B04CF910895CF93D0
:10087000DF93CDB7DEB72B970FB6F894DEBF0FBE70
:10088000CDBF4F83588769877A878B8761110E9414
:10089000C40D9E012F5F3F4F86E0F90111928A95AA
:1008A000E9F785E0FE013796D90101900D928A950E
:1008B000E1F789819A814C815D81452B31F09F3F21
:1008C00031F491E08F3F19F403C091E001C090E052
:1008D00090FF09C049815A816B817C818D819E8105
:1008E0000E94C40C05C0C9010E94D9028111F2CF37
:1008F0002B960FB6F894DEBF0FBECDBFDF91CF9120
:100900000895FC01808191810E94350A0895CF935A
:10091000882309F4A4C0C82F8238C1F40E946D183E
:1009200081FD9DC069E380910001909101010E94C9
:1009300063190E94E90D2FEF81EE94E02150804071
:100940009040E1F700C0000069E319C0833801F569
:100950000E946D1880FD83C063E580910001909135
:1009600001010E9463190E94E90D2FEF81EE94E0CE
:10097000215080409040E1F700C0000063E5809185
:100980000001909101010E946E19CF910C94E90D24
:100990008438C1F40E946D1882FD61C067E48091C3
:1009A0000001909101010E9463190E94E90D2FEF4F
:1009B00081EE94E0215080409040E1F700C00000BB
:1009C00067E4DDCF8CEF8C0F813AD0F46C2F8091EF
:1009D0000001909101010E94E318882349F06C2FD7
:1009E00080910001909101010E946E190E94E90D11
:1009F0006C2F80910001909101010E946319C5CF75
:100A000080E28C0F883048F4C77081E001C0880F05
:100A1000CA95EAF70E94A70DB8CFEBE5EC0FE330DB
:100A200040F4F0E0ED5BFE4F808190E0CF910C94BC
:100A3000A118E8E5EC0FE73150F4F0E0EE0FFF1FEE
:100A4000EB5EFE4F80819181CF910C94B718CD3E23
:100A500030F08C2F0E942F14CF910C940115CF9160
:100A60000895882309F464C0823879F40E946D18CF
:100A700081FF5EC069E380910001909101010E94B5
:100A800063190E94E90D69E310C08338B1F40E9434
:100A90006D1880FF4DC063E58091000190910101C8
:100AA0000E9463190E94E90D63E580910001909115
:100AB00001010E946E190C94E90D843879F40E94AA
:100AC0006D1882FF35C067E48091000190910101AB
:100AD0000E9463190E94E90D67E4E7CF9CEF980F2D
:100AE000913A10F4682FE1CF90E2980F983050F4CB
:100AF000877091E001C0990F8A95EAF7892F0E94CB
:100B0000AD0DD9CF9BE5980F933020F480E090E0B5
:100B10000C94A11898E5980F973120F480E090E0AC
:100B20000C94B7188D3E20F00E948A140C94011585
:100B300008951F93CF93DF93182FEB010E94870432
:100B4000209741F08FE99FE00197F1F700C0000086
:100B50002197F6CF812FDF91CF911F910C94310512
:100B6000893319F060E070E002C060E570E00C9439
:100B70009905882321F00E94A70D0C94E90D089592
:100B8000882321F00E94AD0D0C94E90D0895CF92B9
:100B9000DF92EF92FF920F931F93CF93DF937C012D
:100BA000D62FC72FFC011281058102950F700E947C
:100BB0007C0D882399F0112389F08C2F807F80345D
:100BC00021F080E28D0F883048F082E00E94390EDB
:100BD0000E947C0D91E0D82ED92601C0D12CCC2EBC
:100BE000C2948FE0C8228C2D90E08C30910508F0E3
:100BF000B6C1FC01EA5AFF4F0C9464218C2F807F10
:100C0000CF70882311F0C295C07F112399F0CC23B7
:100C100009F491C180E28D0F883010F0D11104C029
:100C20008C2F0E94A70D03C08C2F0E94B70D0E942D
:100C3000E90D81C18D2F0E943105CC2309F48FC1AC
:100C400080E28D0F883010F0D11104C08C2F0E94EB
:100C5000AD0D03C08C2F0E94BD0D0E94E90D7FC118
:100C60008C2F807FCF70803211F0C295C07FDD2342
:100C700019F0D130C9F022C0112371F0002341F0E6
:100C8000013031F40E94CA0D8C2B0E94D20D67C135
:100C90000E94CA0D8C2B1DC0002319F0013009F4ED
:100CA0005EC10E94DF0D25C0112321F0063008F03F
:100CB00056C10EC0053008F052C11BC0112361F0AF
:100CC000002331F0F701858180FF35C18F70858366
:100CD0008C2F0E94B90543C1002359F0D93309F084
:100CE0003BC1FFEF07EE13E0F15000401040E1F789
:100CF00031C18C2F0E94C00532C18C2F86958695FC
:100D0000837019F0813061F02AC1112321F08D2FF9
:100D10009C2F937002C080E090E00E94A11827C130
:100D2000112321F08D2F9C2F937002C080E090E062
:100D30000E94B7181CC18D2F112319F00E942F1487
:100D400002C00E948A140E94011511C18C2F837069
:100D500009F047C0111107C12D2F22952695277044
:100D6000220F220F6D2F6F70862F90E0A0E0B0E071
:100D7000022E04C0880F991FAA1FBB1F0A94D2F726
:100D8000D4FF10C04FE050E060E070E004C0440FBA
:100D9000551F661F771F2A95D2F74095509560958D
:100DA000709503C040E050E0BA01C695C695C37087
:100DB0008A019B01082B192B2A2B3B2BC901B80157
:100DC000C23049F058F4C13019F00E94B208CBC0CB
:100DD0000E94A008C8C00E94C408C5C00E949E0806
:100DE000C2C0112319F08C2F817001C08695882311
:100DF00009F4B9C02D2F229526952770220F220FB6
:100E00006D2F6F70862F90E0A0E0B0E0022E04C03E
:100E1000880F991FAA1FBB1F0A94D2F7D4FF10C0D6
:100E20004FE050E060E070E004C0440F551F661FC3
:100E3000771F2A95D2F7409550956095709503C01D
:100E400040E050E0BA01C695C695C3708A019B0187
:100E5000082B192B2A2B3B2BC901B801C23049F0B2
:100E600058F4C13019F00E9477097DC00E946509CD
:100E70007AC00E94890977C00E94D80874C0CF70D8
:100E8000112339F08C2F0E94FE088D2F0E94B90586
:100E90006AC08D2F0E94C0058C2F0E941F0963C05D
:100EA000D23F01F128F4D03F41F0D13FA1F03FC043
:100EB000D33FF9F0D43F39F13AC0112341F0053066
:100EC00008F04DC08C2F8F710E94440948C0063035
:100ED00008F045C0F7CF112339F08C2F8F710E9495
:100EE000FE083DC01123C9F38C2F8F710E941F098A
:100EF00036C0112329F08C2F8F710E94E9082FC072
:100F00000E94E4082CC0112349F0CF718C2F0E945D
:100F1000FE0863E08C2F0E941E0E21C081E00E941B
:100F2000390E0230E0F082E00E94390E18C0112321
:100F300031F0002391F28D2F0E94870410C000230E
:100F400099F2D93349F41FEF27EE33E011502040D6
:100F50003040E1F700C000008D2F0E94310588EF7E
:100F60008C0D843020F40E946D180E942E04DD2028
:100F7000C9F00E94780D80FD15C0F70112820E9411
:100F8000720D0E94FE08C7010E94F3070E94720DB5
:100F9000DF91CF911F910F91FF90EF90DF90CF9055
:100FA0000C941F09DF91CF911F910F91FF90EF904B
:100FB000DF90CF9008950F931F93CF93DF93EC01B1
:100FC000688179818A810E94400A8C010E949B0974
:100FD0000E948C08B801CE010E94C705DF91CF9115
:100FE0001F910F910895CF93DF93EC019881898130
:100FF0002B813C81232B31F08F3F31F481E09F3FE7
:1010000019F403C081E001C080E080FD19C0CE0169
:101010000E94FE0281110CC00E947C0D882381F089
:101020008A81882369F082E0DF91CF910C94390E98
:10103000CE010E94DB07CE01DF91CF910C94DB0241
:10104000DF91CF91089580E090E00E94A11880E0A8
:1010500090E00E94B7180E94C40D0E94C70D0E9424
:10106000E90D0E9432160C940115809100019091B7
:1010700001010E9479190C9423080E94B40D0C946C
:101080003508E92FE295EF704E2F50E0FA013297C4
:10109000EE30F105B0F4EE59FF4F0C946421803F1F
:1010A00091F018F4883E68F40EC0843F51F40BC0F0
:1010B000883E48F0813F29F406C093FB882780F9D9
:1010C000089580E0089581E00895FC018081918178
:1010D0000E94350A0E9441080895CF93DF9300D003
:1010E00000D01F92CDB7DEB70F900F900F900F90EA
:1010F0000F90DF91CF910895CF93DF9300D000D070
:1011000000D0CDB7DEB726960FB6F894DEBF0FBE7F
:10111000CDBFDF91CF910895089508950C948D0867
:101120000C948E080E9490086093C5017093C601CC
:101130008093C7019093C8010C9423080C949208E3
:101140000F931F930091C5011091C6012091C70113
:101150003091C801602B712B822B932B1F910F9123
:101160000C9492080F931F930091C5011091C60132
:101170002091C7013091C8016023712382239323FA
:101180001F910F910C9492080F931F930091C5012A
:101190001091C6012091C7013091C80160277127C5
:1011A000822793271F910F910C9492080C948D081D
:1011B0000E94D6086093C1017093C2018093C3015D
:1011C0009093C4010C94230860E070E0CB010C9470
:1011D000D8080F931F9341E050E060E070E08A016F
:1011E0009B0104C0000F111F221F331F8A95D2F7E5
:1011F000C901B8011F910F910C94D8080F931F9348
:1012000041E050E060E070E004C0440F551F661FED
:10121000771F8A95D2F78091C1019091C201A09168
:10122000C301B091C4018A019B01082B192B2A2B01
:101230003B2BC901B8011F910F910C94D8080F9353
:101240001F9341E050E060E070E004C0440F551F80
:10125000661F771F8A95D2F74095509560957095D7
:101260008091C1019091C201A091C301B091C401CC
:101270008A019B01082319232A233B23C901B801B2
:101280001F910F910C94D8080F931F9341E050E0E9
:1012900060E070E004C0440F551F661F771F8A95F9
:1012A000D2F78091C1019091C201A091C301B09188
:1012B000C4018A019B01082719272A273B27C90156
:1012C000B8011F910F910C94D8080F931F930091B0
:1012D000C1011091C2012091C3013091C401602B62
:1012E000712B822B932B1F910F910C94D8080F9385
:1012F0001F930091C1011091C2012091C30130914F
:10130000C40160237123822393231F910F910C94B6
:10131000D8080F931F930091C1011091C201209131
:10132000C3013091C40160277127822793271F9141
:101330000F910C94D80808952FE0929F800D1124EE
:10134000E82FE695E695E695877051E001C0550FC8
:101350008A95EAF785E0E89FF0011124E157FE4FF6
:1013600020E030E070E04081CB01022E02C0969573
:1013700087950A94E2F781708195842785238427D5
:1013800081932F5F3F4F2530310569F708952FE096
:10139000929F800D1124682F669566956695982F0B
:1013A000977085E0689FB001112440E050E080E034
:1013B000FB01E40FF51FE157FE4F208130E0092EBD
:1013C00002C0369527950A94E2F721703327042E40
:1013D00001C0220F0A94EAF7822B4F5F5F4F45301E
:1013E000510531F70895BF92CF92DF92EF92FF92AD
:1013F0000F931F93CF93DF938C01C090C101D090C6
:10140000C201E090C301F090C4018091C5019091A8
:10141000C601A091C701B091C801C82AD92AEA2AF9
:10142000FB2ACFE1D0E0D701C6010C2E04C0B6954F
:10143000A795979587950A94D2F780FD04C02197C8
:1014400090F7B12C07C0BC2EB8018C2F0E9425113B
:101450000197A9F38B2DDF91CF911F910F91FF90F1
:10146000EF90DF90CF90BF900895CF93DF93EC0182
:101470000E94F309BE010E942511DF91CF910895CA
:101480001F93CF93DF93EB0190918E01992321F06D
:10149000CB010E94350A13C0882349F0CB010E947A
:1014A000F309182F682FCE010E949C0904C0CB01BC
:1014B0000E94C709182FBE01812F0E942511DF91BC
:1014C000CF911F9108951F93CF93DF93C091C901CE
:1014D00016E08091CA01C81799F0D0E01C9FF00176
:1014E0001D9FF00D1124E553FE4F40815181628113
:1014F0007381848195810E947C082196C770E9CF11
:10150000DF91CF911F9108954091FB015091FC0113
:101510006091FD017091FE018091FF0190910002A8
:101520000C947C080F931F93CF93DF93809100025C
:1015300082958F7009F05DC08091FD01882309F4C8
:1015400058C08091C9011091CA016091FB0170914E
:10155000FC01C091FE01D091FF0191E06F3F09F0C5
:1015600090E0292F06E0811709F443C0209721F06D
:101570007F3F21F030E003C031E001C0322F90E026
:1015800030FD34C0089FF001099FF00D1124DF01E8
:10159000A553BE4F11963C911197371327C03C912C
:1015A000361324C012963C91129731111FC0139626
:1015B0004D915C9114974C1B5D0B483C5105B0F468
:1015C000809100028F70806180930002E053FE4F93
:1015D00080818F70806180838BEF91E00E94F307A0
:1015E000DF91CF911F910F910C94630A0196877040
:1015F000BACFDF91CF911F910F9108959F92AF9233
:10160000BF92CF92DF92EF92FF920F931F93CF93EF
:10161000DF93CDB7DEB761970FB6F894DEBF0FBE8C
:10162000CDBF8C0185E0F801DE011D9601900D9281
:101630008A95E1F7F801E2809091FB016091FC014D
:101640002091FE013091FF012115310531F06F3FEE
:1016500031F481E09F3F19F403C081E001C080E0D4
:10166000F82FF1709F2E80FD3FC1F801408151811C
:10167000A380B4808BEFC82E81E0D82EF090FD01BE
:10168000F501E21BF30BFF2009F4D9C080910002A1
:10169000E83CF10508F095C0282F207F09F052C0E2
:1016A000561313C0491311C0FE2CE1100EC08F70E9
:1016B0008061809300020E94840AC6010E94F307A1
:1016C00080910002F80185834CC1AB2831F05F3F67
:1016D00031F481E04F3F19F403C081E001C080E0A4
:1016E00080FD03C081E08E2502C080E090E0F82FED
:1016F000F170FF2E80FF1CC08091C9012091CA01AA
:1017000036E0821709F40BC190E0389FF001399F51
:10171000F00D1124E553FE4F6181561306C0608120
:10172000461303C06281E61203C001968770E9CFB9
:10173000FE2CEE2009F415C1809100028160809397
:10174000000254C0561306C0491304C0E11002C081
:10175000F80199C0C8010E946508882361F1EE2054
:1017600051F120910002822F82958F7090E00297B4
:1017700074F08091FB019091FC0198878F8319860A
:10178000BB86AA862C87CE0107960E94F30786E0C7
:10179000F801ABEFB1E001900D928A95E1F70E945C
:1017A000920A0E94840A0AC0561711F1C8010E94C9
:1017B000650881112CC0C8010E94F307FF24F3942F
:1017C000D0C0282F207F81F77A2DB98AA88A6E2D64
:1017D00089890E946D088BEF91E00E94F30786E0F3
:1017E000F60111928A95E9F70E94840AF12CB9C09A
:1017F0004913DCCFE110DACFF8018583C8010E94DC
:10180000F30786E0F60111928A95E9F7AAC0EE2067
:1018100091F220910002822F82958F7090E00297C2
:101820000CF4B5CF8091FB019091FC019A838983E0
:101830001B82BD82AC822E83CE010196A6CFE83CEE
:10184000F10508F044C0FE2CEE2009F4B4CF561385
:1018500030C049132EC02091000220FD21C0822FEC
:1018600082958F70482F50E041155105C9F0F8015D
:1018700025834F30510541F08F5F982F9295907FCF
:10188000822F8F70892B8583C8010E94F30786E021
:10189000F801ABEFB1E001900D928A95E1F73CC001
:1018A00086E0F801ABEFB1E001900D928A95E1F787
:1018B00058C0C8010E946508811169CF809100025B
:1018C000816080930002C8010E94F3074AC07A2D0C
:1018D000B98AA88A6E2D89890E946D0886E0F60172
:1018E00011928A95E9F718C0EE2009F464CFC80177
:1018F0000E946508F82E882309F45DCF86E0F80180
:10190000ABEFB1E001900D928A95E1F78BEF91E09A
:101910000E9481040E94920A0E94840A22C04D877C
:101920005E878D859E850E94350A292F22952F700E
:10193000223028F49F7039F0811105C00BC024308B
:1019400028F49F7049F4805E883020F0C8010E941E
:10195000F3079F2CF92C05C0F8019581907F99F72A
:10196000F9CF8F2D61960FB6F894DEBF0FBECDBFB5
:10197000DF91CF911F910F91FF90EF90DF90CF906B
:10198000BF90AF909F9008951F93CF93DF93CDB7F3
:10199000DEB72C970FB6F894DEBF0FBECDBF4F83D6
:1019A000588769877A878B879C87CE0107960E9424
:1019B000FE0A8823D1F09F8188852A853B85232BC9
:1019C00031F08F3F31F481E09F3F19F403C081E093
:1019D00001C080E080FD47C04F81588569857A85C8
:1019E0008B859C850E947C083EC086E0FE01379670
:1019F000DE01119601900D928A95E1F7FF81E8854D
:101A00006A857B856115710531F0EF3F31F481E026
:101A1000FF3F19F403C081E001C080E080FD23C0D6
:101A20002091CA0130E0C901019687709927409141
:101A3000C90150E084179507F1F1F983EA837D83AA
:101A40006C8396E0929FD001939FB00D1124A55313
:101A5000BE4FFE01319601900D929A95E1F7809369
:101A6000CA010E94630A16E08091C9019091CA01DF
:101A7000891771F1189FC001112485539E4F0E9450
:101A8000FE0A882329F1E091C9011E9FF00111246B
:101A9000E553FE4F4081518162817381848195813C
:101AA0000E947C088091C90190E001968770992777
:101AB0008093C901D9CF0E943D081092CA011092AB
:101AC000C901EBEFF1E086E0DF011D928A95E9F7AD
:101AD0002C960FB6F894DEBF0FBECDBFDF91CF912D
:101AE0001F910895809101028595859585950895AA
:101AF000809101028770089590910102977081E0B2
:101B000009F480E0089590917B0292FB222720F94E
:101B1000281751F080FB92F990937B0280917A0212
:101B200090917B020C94800E089580917B0282FB41
:101B3000882780F991E089270C94830D81E00C942B
:101B4000830D80E00C94830D80912502089590917F
:101B50002502892B80932502089580959091250276
:101B6000892380932502089510922502089590916B
:101B70002402892B80932402089580959091240259
:101B800089238093240208951092240208951092CC
:101B90002302089580910202089508950C94CD0DBA
:101BA0000C94CE0D90917B0292FD08C090910202A0
:101BB000981721F0809302020C94D00D0895809123
:101BC0000202882329F01092020280E00C94D00DCA
:101BD0000895E0910001F091010180912502808338
:101BE000E0910001F0910101908180912402892B04
:101BF0008083E0910001F0910101908180912302A6
:101C0000892B808380910202882381F0E09100017A
:101C1000F09101019081892B808380910001909146
:101C200001010E94CD1881110E94DF0D80910001F9
:101C3000909101010C9479180C94CD0D90917B0238
:101C400092FD10C098E0899F90011124262B2093CB
:101C500001020E94FE088091010285958595859577
:101C60000C941C0E0C94FE081092010280E00C945F
:101C70001C0E209101028095822380930102982FEF
:101C8000977041F430E0482F082E000C550B2417B4
:101C9000350721F490917B0292FF07C085958595C9
:101CA00085950E941F090C94340E08956FEF7FEF05
:101CB00080E090E00C94B72180E090E00E949321B6
:101CC00021E0893E9E4F09F020E0822F089582E0B6
:101CD00090E00C948B2183E090E00C948B21CF93C7
:101CE00084E090E00E948B21C82F82E290E00E9465
:101CF0008B212C2F30E0A901582BCA01CF910895D8
:101D0000CF93C92F682F84E090E00E9499216C2F17
:101D100082E290E0CF910C949921AB01BC018FE05D
:101D200090E00C94AB21AB01BC0183E190E00C94FA
:101D3000AB2160E070E0CB010C94930E60E070E0AA
:101D4000CB010E948D0E0C94990E69EE7EEF80E01F
:101D500090E00E94B72160E082E090E00E9499212B
:101D600060E083E090E00E9499211092C5011092FA
:101D7000C6011092C7011092C80160E084E090E0B3
:101D80000E94992160E082E290E00E94992160E047
:101D900085E090E00E94992160E086E090E00E945A
:101DA00099216FEF87E090E00E94992140E050E098
:101DB000BA0188E090E00E94AB2160E08DE090E005
:101DC0000E94992140E050E0BA0188E190E00E9431
:101DD000AB2160E087E190E00E94992140E050E073
:101DE000BA018CE190E00E94AB2160E070E080E2FB
:101DF00090E00E94B72140E050E0BA0188E190E015
:101E00000E94AB210C949E0E0C94A50E682F8EE0C0
:101E100090E00C9499210E94201A609335027093EF
:101E200036028093370290933802609331027093A8
:101E300032028093330290933402089585B780680C
:101E400085BF85B7806885BF089581E008950C94AB
:101E5000250F08950C94290F0C94290F0C942C0F26
:101E60000C94290F0C94300F0C94290F0E941E0F14
:101E700081E092E10E94851A0E94340F0C94320F87
:101E80000E942A0F0C94290F0E940B1A0E9409131A
:101E90000C942E0F6F927F928F929F92AF92BF926F
:101EA000CF92DF92EF92FF920F931F93CF93DF9326
:101EB000CDB7DEB72A970FB6F894DEBF0FBECDBF01
:101EC0000E941C1381110E940B0F37E2832E32E017
:101ED000932E00E010E0C02E802F0E943F125C0184
:101EE000F401619071904F016826792661147104A4
:101EF000B1F40F5F1F4F0530110569F78FEF89832C
:101F00008A831B820E94141A8160782F9D838C83A0
:101F100049815A816B818D810E9437043AC080913A
:101F2000390281FD0E944812D12CEE24E394F12C59
:101F3000C3018E219F21892B29F10E94270F88231D
:101F4000A9F0DE82CF82AE20BF2081E0AB2809F469
:101F500080E088870E94141A8160782F9A87898789
:101F60004E815F8168858A850E943704000F111FAA
:101F7000F801E95DFD4F80819181E826F926F18223
:101F8000E08207C0D394EE0CFF1CFFE0DF12D0CF3D
:101F9000B0CF0E941F150E946D18909126028917DC
:101FA000D1F00E946D18809326022A960FB6F894FD
:101FB000DEBF0FBECDBFDF91CF911F910F91FF907C
:101FC000EF90DF90CF90BF90AF909F908F907F90D9
:101FD0006F900C942E042A960FB6F894DEBF0FBEB5
:101FE000CDBFDF91CF911F910F91FF90EF90DF90C8
:101FF000CF90BF90AF909F908F907F906F900895FB
:10200000CF93DF930E942A11EC01811521E59207FD
:1020100008F045C0811530E5930708F094C0883E6C
:10202000910528F5803E910508F0F8C0883A9105A1
:1020300070F4853A910508F07CC08130910509F46F
:1020400075C008F4E8C0049708F0E8C0E4C08F3B0E
:10205000910508F0E0C0C85AD0E0CC0FDD1FCA5B84
:10206000DE4F0990D881C02DCE019464D8C081156F
:1020700040E2940758F4811551E0950708F0CEC06E
:102080008D3E910508F4C7C09065C9C0C11580E4B4
:10209000D80708F4C0C0DF70CE01906AC0C08115B7
:1020A00025E59207A8F4811534E5930708F095C05B
:1020B000811543E5940708F07BC0811552E595072B
:1020C00008F061C0D82FCC27CE01816F906AA7C0DD
:1020D000C11589E5D807A0F4C11528E5D20708F095
:1020E00082C0C11536E5D30708F095C08C2F0E9439
:1020F000BE118F7190E0D82FCC27CE0190628FC097
:10210000C1154AE5D40708F474C0CE019056811574
:10211000904208F080C08D2F8F710E94BE11DD2784
:10212000D0628F71AE01582BCA0179C081E090E076
:1021300076C0C55AD0E0CC58DE4F8881C82FD0E099
:10214000CE0190646CC074E0969587957A95E1F71E
:10215000282F23703C2F337081E090E002C0880F5D
:10216000991F3A95E2F79C68AC01522B9A019C2F7B
:102170009F709695969550E2959FE0011124C901B4
:102180008C2B9D2B4CC08370992721E030E002C03E
:10219000220F331F8A95E2F79C2F9695969580E241
:1021A000989FE0011124C22BD32BCE019C6837C02D
:1021B0008370992721E030E002C0220F331F8A95F7
:1021C000E2F79C2F9695969540E2949FE0011124AA
:1021D000C22BD32BCE019A6822C0D82FCC27CE0198
:1021E000846F906A1CC0DC2FCC27CE01806F906A70
:1021F00016C08C2F8F700E94BE1194E0D695C795A3
:102200009A95E1F7CF70D0E0DC2FCC27D0699E0102
:10221000282BC90104C080E090E001C0CE01DF910D
:10222000CF9108952BE4829FC0011124FC012FE07F
:10223000729FE00DF11D1124E60FF11DEE0FFF1F3F
:10224000EF5DFE4F8591949108950E9412110E94B6
:10225000001008958238910569F1B0F48133910539
:1022600009F46DC048F48932910509F463C08A32DB
:10227000910509F469C008958533910509F455C0A5
:1022800089339105B9F00895833E910569F138F4D9
:10229000803E9105B1F0823E910509F10895863E98
:1022A0009105A9F1873E9105B9F1843E910509F0A8
:1022B00064C023C020917A0220FD4FC021FD4DC093
:1022C000089580917A0280FD44C080917B0280FF56
:1022D00044C080917A0284FD42C083EE4DC080915B
:1022E0007A0282FF38C0F5CF80917A0282FD33C036
:1022F00080917B0280FD31C0ECCF80917B0281FF19
:1023000032C080917A0284FD2AC087EE35C0809168
:102310007A0283FF26C0F5CF80917A0283FD21C027
:1023200080917B0281FD1FC0ECCF80917A0285FDF8
:102330001CC01DC080917A0285FD19C016C0809115
:102340007A0286FD16C017C080917A0286FD13C0FE
:1023500010C089E311C082EE0FC080EE0DC080E096
:102360000BC086EE09C084EE07C089E205C085E394
:1023700003C08AE201C081E390E0089590917A025F
:1023800092FF0DC0282F2871283019F4877F8460B0
:1023900006C0282F2471243011F48B7F886093FFAE
:1023A0000DC0282F2871283119F4877E846106C05A
:1023B000282F2471243111F48B7E886120917B02B7
:1023C00020FF0DC0382F3871383019F4877F8160B5
:1023D00006C0382F3171313011F48E7F886021FFB3
:1023E0000DC0282F2871283119F4877E816106C01D
:1023F000282F2171213111F48E7E886194FD877E12
:10240000089580E008950C94560E0E941C138FE3EB
:102410009CE90197F1F700C000000E941C1380E0C6
:102420000E943F1280FF04C00E9403120C94611AA4
:1024300008950C9405120E945C0E811102C00E9446
:10244000040F0E94670E809339020E946F0E9093D2
:102450007B0280937A020E9419120E946B0E682FF1
:1024600070E080E090E00E949E086091C101709150
:10247000C2018091C3019091C4010C94D608E82F49
:10248000F0E0EE0FFF1FEA57FD4F80819181089524
:10249000089580EA8A95F1F7089500C008950C9494
:1024A000491208950C9451120C9452120C9451122A
:1024B0000C945612F894E82FE295EF70F0E031A1F9
:1024C000282F2F7081E090E001C0880F2A95EAF74D
:1024D000982F9095932391A392A1892B82A378940E
:1024E00008950F931F93CF93DF93C6E8D1E08991AE
:1024F0008F3F11F00E945A1281E0CB38D807B9F70C
:10250000C7E7D1E006E811E089918F3F11F00E9402
:102510005A120C171D07C1F7DF91CF911F910F9130
:102520000895AF92BF92CF92DF92EF92FF920F93F6
:102530001F93CF93DF938C01C62FD0E0CE018A5733
:102540009E4F6C01DC019C919F3F09F457C0B62E51
:10255000F894E92FE295EF70F0E081A19F7021E0FF
:1025600030E001C0220F9A95EAF7822B81A382A165
:102570002095282322A378940E944D12E7E7F1E0EA
:1025800020E030E0E12CF12C41E050E081918F3FE0
:10259000C1F0A82FA295AF70B0E090966C9170E05A
:1025A0008F70DB0102C0B595A7958A95E2F7A0FD73
:1025B00008C0CA01022E02C0880F991F0A94E2F7D0
:1025C00002C080E090E0E82AF92A2F5F3F4F2F30C9
:1025D0003105E1F6F60180818F3F11F00E945A1219
:1025E00061E0E114F10409F460E08B2D0E944F12C8
:1025F000CC0FDD1FC00FD11FF982E882DF91CF9190
:102600001F910F91FF90EF90DF90CF90BF90AF9010
:1026100008950E947112ECE7F2E0A6E8B2E0119290
:1026200011921D921D9282E0E638F807C1F785E00D
:102630000E9467130C94E602FF920F931F93CF93AF
:10264000DF93CDB7DEB72A970FB6F894DEBF0FBE83
:10265000CDBF8E010F5F1F4F8AE0F80111928A955E
:10266000E9F7F12C6F2DC8010E949112F394F5E067
:10267000FF12F8CF4AE050E0B8018CE792E00E94E8
:102680007E21FF24F394009709F4F12C892B41F06B
:102690008AE0F801ACE7B2E001900D928A95E1F78B
:1026A0002F2D45E066E872E08CE792E00E94681307
:1026B0000E94EC028F2D2A960FB6F894DEBF0FBE53
:1026C000CDBFDF91CF911F910F91FF900895089595
:1026D000FF920F931F93CF93DF93F82E092F162F9E
:1026E000D72FC42F222349F081E080933C020E941F
:1026F000141A90933B0280933A0280913C02882303
:10270000D9F080913A0290913B020E942C1A0597D1
:1027100098F0EF2DF02FA12FBD2F80E090E04C2FEF
:1027200050E08417950734F4219131912D933D9316
:102730000196F7CF10923C02DF91CF911F910F913C
:10274000FF9008950E948B190E94FB1B0E94141C8D
:102750000E94261C0E94400FFBCF8091430280FF05
:102760000BC06091070185E0689FB0011124759549
:102770006795759567952BC081FF09C0609107012A
:1027800085E0689FB00111247595679520C082FF90
:1027900007C06091070185E0689FB001112417C050
:1027A000909142029923D1F060910601961788F723
:1027B0002091070185E0289F90011124929FA0019C
:1027C000939F500D112470E0CA010E94502160387F
:1027D000710540F46115710519F406C065E070E0FB
:1027E000862F08958FE7089581E008958091430230
:1027F00080FF08C06091030170E07595679575953D
:10280000679521C081FF06C06091030170E0759556
:10281000679519C082FF04C06091030170E010C089
:1028200090914102992399F0609102019617A0F7C7
:1028300080910301899FC001112470E00E94502102
:102840006038710540F46115710519F406C061E046
:1028500070E0862F08958FE7089581E008958D3EFA
:1028600021F40E94AD13819504C08E3E29F40E948C
:10287000AD138093470208958F3E21F40E94AD135B
:10288000819504C0803F29F40E94AD1380934602D5
:102890000895893F19F40E94F61305C08A3F31F468
:1028A0000E94F61381958093480208958B3F21F48E
:1028B0000E94F613819504C08C3F29F40E94F61300
:1028C0008093490208959FE0980F983078F421E0B2
:1028D00030E0A90102C0440F551F9A95E2F7CA01E2
:1028E00090914502892B8093450208958D3F21F4F4
:1028F0008091430281600BC08E3F21F4809143029E
:10290000826005C08F3F29F48091430284608093E8
:10291000430208958D3E39F49091470297FF35C0E8
:102920001092470259C08E3E29F490914702191621
:10293000BCF32BC0909146028F3E29F497FF25C02F
:102940001092460249C0803F19F41916CCF31DC0FD
:1029500090914802893F29F41916BCF4109248025C
:102960003BC08A3F19F497FF10C0F8CF8B3F39F472
:102970009091490297FF09C0109249022DC08C3FE7
:1029800021F4909149021916BCF39FE0980F9830FA
:1029900080F421E030E0A90102C0440F551F9A9550
:1029A000E2F7CA0180959091450289238093450200
:1029B00013C08D3F21F4809143028E7F0BC08E3F68
:1029C00021F4809143028D7F05C08F3F29F48091CF
:1029D00043028B7F8093430280914602811106C09F
:1029E00080914702811102C01092420280914802F8
:1029F000811106C080914902811102C010924102EA
:102A000008950E94141A20914602211104C02091B9
:102A10004702222321F09093400280933F022091AD
:102A20004802211104C020914902222321F09093F1
:102A30003E0280933D0284E492E00C949318EF925E
:102A4000FF920F931F93CF93DF9300D000D000D05D
:102A5000CDB7DEB786E0E4E4F2E0DE011196019046
:102A60000D928A95E1F7E0904602F09047020091BE
:102A700048021091490210924602109247021092A9
:102A8000480210924902E11003C0FF2009F45DC022
:102A900080913F02909140020E942C1AAC019091CB
:102AA0004202992339F02091080130E024173507BC
:102AB00058F04BC0209109018AE0289F9001112411
:102AC0002417350718F041C09F3F19F09F5F90937E
:102AD0004202EE2061F00E94AD131E1414F09FEF2D
:102AE00001C091E0989F902D112490934602FF2001
:102AF00061F00E94AD131F1414F09FEF01C091E02C
:102B0000989F902D112490934702309146023323D1
:102B1000E1F0209147022223C1F045EB3403C001CC
:102B20001124992319F09093460203C081E0809309
:102B3000460235EB2303C0011124992319F0909329
:102B4000470203C081E080934702011103C01123B3
:102B500009F45DC080913D0290913E020E942C1AC2
:102B6000AC0190914102992339F02091040130E0A9
:102B70002417350758F04BC0209105018AE0289FA3
:102B8000900111242417350718F041C09F3F19F018
:102B90009F5F90934102002361F00E94F61310168C
:102BA00014F09FEF01C091E0989F902D1124909315
:102BB0004802112361F00E94F613111614F09FEFE2
:102BC00001C091E0989F902D11249093490230917B
:102BD00048023323E1F0209149022223C1F045EB62
:102BE0003403C0011124992319F09093480203C0C3
:102BF00081E08093480235EB2303C001112499231F
:102C000019F09093490203C081E0809349028091BA
:102C1000460281110BC080914702811107C080914B
:102C20004802811103C08091490281110E9401155F
:102C3000EB82FC820D831E8386E0FE013196A4E4C4
:102C4000B2E001900D928A95E1F726960FB6F894BE
:102C5000DEBF0FBECDBFDF91CF911F910F91FF90CF
:102C6000EF900895E4E4F2E086E0DF011D928A959A
:102C7000E9F7109242021092410210924302089525
:102C80000F931F93CF93DF93C42FD22FFC01828128
:102C90008823C9F040934C020E94141A90934B026F
:102CA00080934A0280E28C0F883008F057C0C770CA
:102CB00081E001C0880FCA95EAF7DF91CF911F919B
:102CC0000F910C94B90580914C02481330C080914B
:102CD0004A0290914B020E942C1A883C910538F5CB
:102CE00010E21D0FCD17B9F080E28C0F883040F450
:102CF000C77081E001C0880FCA95EAF70E94C0053D
:102D0000183028F581E09D2F977001C0880F9A95A3
:102D1000EAF70E94B905802F0E94B0051830F0F440
:102D2000D77081E001C0880FDA95EAF70AC080E227
:102D30008C0F883098F4C77081E001C0880FCA9565
:102D4000EAF7DF91CF911F910F910C94C005802F6E
:102D5000DF91CF911F910F910C94B005DF91CF912E
:102D60001F910F9108950F939C01CB01243F4CE5D7
:102D7000340731F188F4293DFCE53F07D9F02A3DBD
:102D80004CE5340779F1283D3C45A9F506E221EEF2
:102D900041EE68ED7CE52BC0263FFCE53F07E1F006
:102DA000A8F0273F3C4539F507E225EE46EE67EFF0
:102DB0007CE51DC007E225EE45EE69ED7CE517C018
:102DC00006E221EE40EE64EF7CE511C007E225EE5D
:102DD00044EE65EF7CE50BC006E221EE42EE66EFC5
:102DE0007CE505C008E221E045EE6AED7CE50E9445
:102DF000401680E008C0FC018281882319F01092FF
:102E00004C0201C081E00F910895CF93DF93EC0154
:102E1000FB018281882309F426C1C430FDE5DF0768
:102E200060F4CB3F9CE5D90768F49E0122503C45F5
:102E30002431310508F018C105C0C236EDE5DE07C2
:102E400009F012C10E946F0E90937B0280937A0268
:102E5000C031FCE5DF0709F4CAC008F041C0C83042
:102E60009CE5D90709F4A4C0F0F4C430FCE5DF0701
:102E700009F48CC068F4C2309CE5D90709F482C01B
:102E8000C330DC4509F0E5C080917A028260DFC082
:102E9000C630FCE5DF0709F483C008F085C08091E7
:102EA0007A028860D4C0CC309CE5D90709F490C080
:102EB00068F4CA30FCE5DF0709F47EC008F084C07E
:102EC0000E943D0880917A028068C1C0CE309CE5A6
:102ED000D90709F481C008F086C080917A0294C0B5
:102EE000CD3FFCE5DF0709F47BC038F5C4319CE534
:102EF000D90709F49AC058F4C231FCE5DF0709F498
:102F00007AC008F07EC080917A028F7BA0C0CB3F50
:102F10009CE5D907F1F108F03FC0C531DC4509F067
:102F200098C080917A0282FB222720F991E09227B3
:102F300090FB82F990FB83F98AC0C1308DE5D807F8
:102F400009F467C050F480917B02CF3FECE5DE07C7
:102F5000C1F108F05BC08D7F65C0C3308DE5D80737
:102F600009F471C008F46DC0C236DD4509F071C0C6
:102F700080917A0284FB222720F991E0922790FB2E
:102F800084F965C080917A02816061C080917A0283
:102F900016C080917B0216C080917B02826042C085
:102FA00080917A02806153C080917A0280624FC022
:102FB00080917A0280644BC080917A02886084603C
:102FC00046C0826081602EC080917A028E7F3FC0B1
:102FD00080917A028D7F3BC080917A02877F37C0D3
:102FE00080917B0214C080917A028F7E30C08091E4
:102FF0007A028F7D2CC00E943D0880917A028F77E3
:1030000026C080917A02877F8B7F21C08D7F8E7F43
:1030100009C080917B02982F909591708E7F892BAB
:1030200090FB81F980937B0214C00E943D0880913F
:103030007A0287FB222720F991E0922790FB87F9FB
:1030400006C081E001C080E00E94060F02C08093AC
:103050007A0280917A0290917B020E94800E0E94F7
:103060003D0880E001C081E0DF91CF910895CF93CA
:10307000DF9386319C4541F5EB010E94A40D982F0A
:103080008A812091000130910101882379F09A7A98
:1030900081E009F480E080934D02911102C069E261
:1030A00001C065E3C9010E9463190AC080914D0205
:1030B000811102C069E201C065E3C9010E946E1975
:1030C0000E94E90D80E001C081E0DF91CF91089579
:1030D00090935302809352020895E0915202F0912E
:1030E0005302309721F00190F081E02D099480E0A7
:1030F0000895E0915202F0915302309799F0209197
:103100001401222359F020917A0227FF07C0DC0125
:103110002C9111962C93119725E02C930280F3812A
:10312000E02D09940895E0915202F09153023097F6
:1031300039F022E0DC012C930480F581E02D099424
:10314000089520915002309151022817390771F0EB
:103150009093510280935002E0915202F0915302F9
:10316000309721F00680F781E02D09940895209191
:103170004E0230914F022817390771F090934F0299
:1031800080934E02E0915202F0915302309721F069
:103190000084F185E02D09940895FC013296809118
:1031A0001401882331F080917A0287FF02C09EE1EA
:1031B00001C096E080E0915028F021912223D9F3BC
:1031C0008F5FF9CF0895662351F1209114012223D6
:1031D000E9F020917A0227FF19C0462F46954695BF
:1031E00046954E31E0F4677021E030E002C0220FD6
:1031F000331F6A95E2F7FC01E40FF11D828190E034
:103200002823392381E0232B69F409C0FC0132967D
:1032100008962191621729F0E817F907D1F780E0A5
:10322000089581E008959C01FC0132969FEF80E0B3
:103230004191461789F09F3F19F4411101C0982F21
:103240008F5F8630A9F79F3F39F0F901E90FF11D33
:1032500097FDFA956283089508959C012A5F3F4F78
:10326000FC014281461301C0128201968217930726
:10327000B9F70895262F2695269526952E3168F4C0
:10328000FC01E20FF11D677021E030E001C0220F68
:103290006A95EAF78281282B22830895262F2695A6
:1032A000269526952E3170F4FC01E20FF11D677012
:1032B00021E030E001C0220F6A95EAF72095828173
:1032C00028232283089520911401222329F020919C
:1032D0007A0227FD0C943A190C94131920911401C9
:1032E000222329F020917A0227FD0C944E190C9488
:1032F0002D1920911401FC013296222331F0809186
:103300007A0287FF02C08EE101C086E0DF011D92D4
:103310008A95E9F70895089508950C948C190C94F2
:103320008C19CF930E948F190E941C130E948D1933
:10333000C0E08C2F0E943F12892B29F4CF5FC5304B
:10334000C1F780E001C081E0CF9108950C948C1901
:103350000C94A61980919802843049F10E94A81912
:1033600080E00E942E041092540220E488E190E054
:103370000FB6F894A895809360000FBE209360006C
:1033800083B7817F846083BF83B7816083BF789474
:10339000889583B78E7F83BF0FB6F894A8958091E8
:1033A0006000886180936000109260000FBE0895F5
:1033B0000C948C190E943D080E946D180E942E04E6
:1033C0000C94D8191F920F920FB60F9211248F935D
:1033D0009F93AF93BF9380915402811113C080914A
:1033E000900290919102A0919202B0919302419625
:1033F000A11DB11D8093900290939102A09392021F
:10340000B0939302BF91AF919F918F910F900FBE98
:103410000F901F90189582E084BD93E095BD9AEFC0
:1034200097BD80936E0008952FB7F8948091900215
:1034300090919102A0919202B09193022FBF0895B2
:103440002FB7F8946091900270919102809192024E
:10345000909193022FBF08959C014FB7F8948091EB
:10346000900290919102A0919202B09193024FBF6D
:10347000821B930B089578941F920F920FB60F92B0
:1034800011248F939F93AF93BF938091900290915B
:103490009102A0919202B09193020196A11DB11DDB
:1034A0008093900290939102A0939202B093930222
:1034B000BF91AF919F918F910F900FBE0F901F9072
:1034C000189581E08093E00080E28093D80010920C
:1034D000C9008FE19EE40197F1F700C0000087E08A
:1034E00090EBDC018093A1029093A202A093A3022F
:1034F000B093A4029CE088E10FB6F894A89580935D
:1035000060000FBE90936000FFCF90938D01809379
:103510008C010895809178020895909198029430DA
:1035200031F580935502709357026093560282E002
:103530008093E9008FEF9091E800815095FD06C0DF
:1035400095ED9A95F1F700008111F5CF8091E80093
:1035500085FF0DC040E050E063E070E085E592E05B
:103560000E94B21C8091E8008E778093E800089555
:10357000BC0184E00C948D1ABC0183E00C948D1A7C
:1035800022E02093E9002FEF3091E800215035FD33
:1035900006C035ED3A95F1F700002111F5CF2091E5
:1035A000E80025FF0BC040E050E066E070E00E94BC
:1035B000B21C8091E8008E778093E8000895CF9345
:1035C000DF9320911401222339F020917A0227FF02
:1035D00003C060E222E002C068E021E02093E9003D
:1035E0002FEF3091E800215035FD06C035ED3A95BA
:1035F000F1F700002111F5CF2091E80025FF1DC053
:10360000EC0180911401811105C040E050E068E0B8
:1036100070E003C070E040E050E0CE010E94B21CB8
:103620008091E8008E778093E80080E2FE01A8E5B3
:10363000B2E001900D928A95E1F7DF91CF91089564
:1036400080919702811109C00E94431E0E94A01E12
:103650008091E20084608093E200089510929702C6
:10366000089508950895089542E061EC81E00E9474
:10367000BC1D42E261EC82E00C94BC1D80919A0278
:10368000833009F460C030F4813071F0823009F485
:1036900099C008958A3009F485C08B3009F46BC055
:1036A000893009F0A7C020C080919902813A09F0C1
:1036B000A1C08091E800877F8093E80080919D02FF
:1036C00090919E02892B21F460E288E592E003C08C
:1036D00060E080E090E070E00E94FD1C8091E800D6
:1036E0008B778093E800089580919902813209F0E8
:1036F00081C080919D0290919E02029708F07AC04D
:103700008091E800877F8093E8008091E80082FD47
:1037100005C0809198028111F8CF6CC02091F30010
:103720008091F20090E0922B029729F48091F100B1
:103730008B7F813021F48091F10080937802809119
:10374000E8008B7753C080919902813A09F052C00A
:1037500080919D0290919E02892B09F04BC080912F
:10376000E800877F8093E8008091E80080FFFCCF2D
:103770008091140136C0809199028132D9F58091EF
:103780009D0290919E02892BA9F58091E800877F88
:103790008093E8000E94F11D80919B0280931401A8
:1037A0000C943D0880919902813221F58091E800C6
:1037B000877F8093E8000E94F11D80919C02809396
:1037C0007902089580919902813AA1F48091E800EC
:1037D000877F8093E8008091E80080FFFCCF809194
:1037E00079028093F1008091E8008E778093E80061
:1037F0000C94F11D089584B7877F84BF0FB6F894A9
:10380000A8958091600088618093600010926000AC
:103810000FBE90E080E80FB6F8948093610090931B
:1038200061000FBE0C94360F0E94431E0E94A01E22
:10383000E2EEF0E080818460808378940E943521FC
:103840000E94440F8AE091E00C94681880919802DD
:103850008530A9F480919802853079F40E94AA19E4
:10386000809196028823B1F30E949119882391F3E5
:103870000E949C1C0E943D08EDCF0E94DA190C9416
:103880004A0F0C94431C292F332723303105C9F0EC
:1038900060F42130310581F02230310509F044C057
:1038A0008BE390E025E233E043C021323105E1F0C3
:1038B0002232310549F138C082E190E020E633E060
:1038C00037C099278130910549F028F0029761F5BA
:1038D000EDEFF2E005C0E1E2F3E002C0EDE0F3E07D
:1038E000849190E09F0124C06115710541F0613021
:1038F0007105D1F489E090E020E533E019C089E05A
:1039000090E027E333E014C06115710541F06130A8
:10391000710551F486EB90E022E733E009C080E4C2
:1039200090E028E234E004C080E090E020E030E065
:10393000FA0131832083089580E189BD82E189BD48
:1039400009B400FEFDCF8091D8008F7D8093D80010
:103950008091E00082608093E0008091E00081FD32
:10396000FCCF0895CF92DF92EF92FF920F931F93B7
:10397000CF93DF93EC018B017A010E94101E81111D
:1039800033C0E114F10439F0F70180819181081B03
:10399000190BC80FD91FC12CD12C0115110519F114
:1039A0008091E80085FD16C08091E8008E778093B5
:1039B000E800E114F10449F0F70180819181C80E1B
:1039C000D91ED182C08285E00FC00E94101E8823BC
:1039D00021F30AC089918093F10001501109FFEF92
:1039E000CF1ADF0ADACF80E0DF91CF911F910F91DC
:1039F000FF90EF90DF90CF90089520919F0230913B
:103A0000A0022617370748F06115710539F4209197
:103A1000E8002E772093E80001C0B901FC0120E006
:103A20006115710579F1809198028823F1F1853053
:103A3000F1F18091E80083FD3CC08091E80082FDB7
:103A40002EC08091E80080FFEBCF2091F3008091A1
:103A5000F20090E0922B6115710551F088309105CC
:103A600038F421912093F100615071090196F3CF50
:103A700021E0089709F020E08091E8008E7780939C
:103A8000E800CECF2111CFCF0AC0809198028823C1
:103A900061F0853061F08091E80083FD0AC080917B
:103AA000E80082FFF2CF80E0089582E0089583E08D
:103AB000089581E0089520919F023091A002261779
:103AC000370748F06115710539F42091E8002E7729
:103AD0002093E80001C0B901FC0120E061157105E7
:103AE00091F180919802882309F440C0853009F44F
:103AF0003FC08091E80083FD3DC08091E80082FDD9
:103B00002FC08091E80080FFE9CF2091F3008091E1
:103B1000F20090E0922B6115710559F08830910503
:103B200040F424912093F10031966150710901967F
:103B3000F2CF21E0089709F020E08091E8008E772D
:103B40008093E800CBCF2111CCCF0AC0809198029E
:103B5000882361F0853061F08091E80083FD0AC020
:103B60008091E80082FFF2CF80E0089582E008951E
:103B700083E0089581E00895982F973068F5909339
:103B8000E900981739F07091EC002091ED00509108
:103B9000F00003C0242F762F50E021FD02C09F5F6C
:103BA000ECCF3091EB003E7F3093EB003091ED0095
:103BB0003D7F3093ED003091EB0031603093EB00AE
:103BC0007093EC002093ED005093F0002091EE00F4
:103BD00027FDE5CF80E008958F708093E90081E0B4
:103BE00008958091990287FF11C08091E80082FDBD
:103BF00005C0809198028111F8CF11C08091E80032
:103C00008B770BC080919802882349F08091E8005F
:103C100080FFF8CF8091E8008E778093E8000895C8
:103C20002091E4003091E50095E64091EC00842F6E
:103C3000817040FF23C08091E80080FD1DC080910D
:103C40009802882399F0853099F08091EB0085FDEA
:103C500011C04091E4005091E5002417350729F385
:103C6000915011F09A01E1CF84E0089582E0089527
:103C700083E0089581E0089580E008954091E80090
:103C800042FFDDCF08950E94B11E0E94B91EE0EEF2
:103C9000F0E0808181608083E8EDF0E080818F77C3
:103CA000808319BCA7EDB0E08C918E7F8C938081CE
:103CB0008F7E80831092970208950F931F93CF9366
:103CC000DF930E94B11E0E94B91EC8EDD0E088812A
:103CD0008F77888388818068888388818F7D8883B7
:103CE00019BC1092980210929402109296021092AF
:103CF000950200EE10E0F80180818B7F808388813F
:103D00008160888342E060E080E00E94BC1DE1EEBB
:103D1000F0E080818E7F8083E2EEF0E08081816040
:103D20008083808188608083F80180818E7F80839A
:103D3000888180618883DF91CF911F910F910895D1
:103D4000E8EDF0E080818F7E8083E7EDF0E0808118
:103D50008160808384E082BF81E0809397020C942D
:103D60005D1EE8EDF0E080818E7F80831092E2009E
:103D700008951092DA001092E10008951F920F92B8
:103D80000FB60F9211242F933F934F935F936F932E
:103D90007F938F939F93AF93BF93EF93FF93809104
:103DA000E10082FF0BC08091E20082FF07C080919A
:103DB000E1008B7F8093E1000E9434218091DA0042
:103DC00080FF1FC08091D80080FF1BC08091DA0067
:103DD0008E7F8093DA008091D90080FF0DC080E152
:103DE00089BD82E189BD09B400FEFDCF81E08093E9
:103DF00098020E94201B05C019BC109298020E94D4
:103E00002E1B8091E10080FF19C08091E20080FFAD
:103E100015C08091E2008E7F8093E2008091E200E5
:103E200080618093E2008091D80080628093D80006
:103E300019BC85E0809398020E94321B8091E100BA
:103E400084FF30C08091E20084FF2CC080E189BDF6
:103E500082E189BD09B400FEFDCF8091D8008F7D3D
:103E60008093D8008091E1008F7E8093E100809163
:103E7000E2008F7E8093E2008091E2008160809377
:103E8000E20080919402882311F084E007C08091C1
:103E9000E30087FD02C081E001C083E080939802C7
:103EA0000E94331B8091E10083FF29C08091E200D2
:103EB00083FF25C08091E100877F8093E10082E04D
:103EC00080939802109294028091E1008E7F8093FB
:103ED000E1008091E2008E7F8093E2008091E20019
:103EE00080618093E20042E060E080E00E94BC1DBF
:103EF0008091F00088608093F0000E94311BFF9158
:103F0000EF91BF91AF919F918F917F916F915F9151
:103F10004F913F912F910F900FBE0F901F901895CA
:103F20001F920F920FB60F9211242F933F934F932E
:103F30005F936F937F938F939F93AF93BF93CF9331
:103F4000DF93EF93FF93C091E900CF708091EC0075
:103F5000D82FD17080FDD0E81092E9008091F00058
:103F6000877F8093F00078940E94D41F1092E9001C
:103F70008091F00088608093F000CD2BCF70C093CB
:103F8000E900FF91EF91DF91CF91BF91AF919F91A8
:103F90008F917F916F915F914F913F912F910F90F2
:103FA0000FBE0F901F9018951F93CF93DF93CDB73F
:103FB000DEB7AA970FB6F894DEBF0FBECDBFE9E912
:103FC000F2E08091F100819322E0E13AF207C9F733
:103FD0000E943E1B8091E80083FF2EC180919902D0
:103FE00090919A02492F50E04A30510508F024C1BF
:103FF000FA01E059FF4F0C946421803821F0823897
:1040000009F01AC108C080919502909196029923F7
:1040100089F082600FC080919D028F70873008F018
:104020000BC18093E9008091EB0085FB882780F924
:104030001092E9009091E800977F9093E8008093B8
:10404000F1001092F100D1C0282F2D7F09F0F4C0AB
:10405000882319F0823061F0EFC080919B0281309B
:1040600009F0EAC0933009F080E0809396022EC0F8
:1040700080919B0281112AC080919D028F702FEF49
:10408000280F263008F0D8C08093E9002091EB007B
:1040900020FF1CC0933021F48091EB00806214C09B
:1040A0009091EB0090619093EB0021E030E0A9014A
:1040B00002C0440F551F8A95E2F74093EA00109220
:1040C000EA008091EB0088608093EB001092E90099
:1040D0008091E800877F8093E8000E94F11DACC0CA
:1040E0008111AAC010919B021F778091E300807814
:1040F000812B8093E3008091E800877F8093E80024
:104100000E94F11D8091E80080FFFCCF8091E300C8
:1041100080688093E300111102C082E001C083E057
:104120008093980289C08058823008F085C08091C1
:104130009B0290919C028C3D53E0950779F583E0BA
:104140008A838AE289834FB7F894DE01139620E0D0
:104150003EE051E2E32FF0E050935700E49120FF5E
:1041600003C0E295EF703F5FEF708E2F90E0EA3072
:1041700010F0C79601C0C0968D939D932F5F243198
:1041800049F74FBF8091E800877F8093E8006AE29B
:1041900070E0CE0101960E94FD1C16C060919D0248
:1041A00070919E02AE014F5F5F4F0E94411CBC01A7
:1041B000892B09F441C09091E800977F9093E80023
:1041C00089819A810E945B1D8091E8008B778093A2
:1041D000E80032C0803881F58091E800877F8093C5
:1041E000E800809194028093F1008091E8008E773E
:1041F00072CF811121C080919B0290919C029927DE
:104200000297D4F48091E800877F8093E800809142
:104210009B02809394020E94F11D8091940281116F
:1042200006C08091E30087FD02C081E001C084E008
:10423000809398020E94341B8091E80083FF0AC09B
:104240008091E800877F8093E8008091EB00806296
:104250008093EB00AA960FB6F894DEBF0FBECDBFD9
:10426000DF91CF911F9108950895CF938091980287
:104270008823A1F0C091E900CF709091EC00892FC4
:10428000817090FD80E8C82B1092E9008091E800D1
:1042900083FD0E94D41FCF70C093E900CF91089591
:1042A00097FB072E16F4009407D077FD09D00E94E3
:1042B0006A2107FC05D03EF4909581959F4F0895A3
:1042C000709561957F4F0895EE0FFF1F0590F49153
:1042D000E02D0994AA1BBB1B51E107C0AA1FBB1FFD
:1042E000A617B70710F0A61BB70B881F991F5A9582
:1042F000A9F780959095BC01CD010895FB01DC01E3
:1043000004C08D910190801921F441505040C8F7AC
:10431000881B990B0895F999FECF92BD81BDF89A3B
:10432000992780B50895A8E1B0E042E050E00C94F0
:10433000BF21262FF999FECF92BD81BDF89A019732
:1043400000B4021639F01FBA20BD0FB6F894FA9ADD
:10435000F99A0FBE08950396272F0E949A210E9472
:104360009921252F0E949A21242F0C949A2101969D
:10437000272F0E949A210C949921DC01CB01FC018A
:10438000F999FECF06C0F2BDE1BDF89A319600B4AE
:0E4390000D9241505040B8F70895F894FFCFB9
:10439E0003022808641E140A321E8A1ADF1AC01A73
:1043AE00BC1AB81A01E200E900EA00B500B600B77F
:1043BE0000CD008301CC008A0192019401210223D9
:1043CE000224022502260227022A02B300B4006F3D
:1043DE00007000818283E200E900EA00B500B600B9
:1043EE00B700CD008301CC008A0192019401210215
:1043FE00230224022502260227022A02B300B40059
:10440E006F007000818283F5F630F4F190919293F3
:0C441E0095949697346766363537F700A2
:00000001FF
