:100000000C94E8020C942F030C942F030C942F03F0
:100010000C942F030C942F030C942F030C942F0398
:100020000C942F030C942F030C94F8210C94CA22E7
:100030000C94681C0C942F030C942F030C942F0326
:100040000C942F030C942F030C942F030C942F0368
:100050000C942F030C94C11C0C942F030C942F03AD
:100060000C942F030C942F030C942F030C942F0348
:100070000C942F030C942F030C942F030C942F0338
:100080000C942F030C942F030C942F030C942F0328
:100090000C942F030C942F030C942F030C942F0318
:1000A0000C942F030C942F030C942F03C506C50644
:1000B000F706F70644076207450845086D07D507A8
:1000C000E607E607E508E508F708F708EE08F70889
:1000D000F708F708E508E508F308F708F708F30854
:1000E000A516A816C816D916E116EC16321732173F
:1000F000321732173217EF16F216F71604171117C8
:1001000014171817251737235E2356245E23562409
:10011000AA23CD2356242424332429001E001F00A3
:1001200020002100220023002400250026002700B3
:100130002D002E002A004A002B0014001A0008008F
:10014000150017001C0018000C00120013002F00EF
:10015000300031004B003900040016000700090090
:100160000A000B000D000E000F00330034000000E9
:1001700028004E00E1001D001B00060019000500CC
:10018000110010003600370038000000E500520072
:100190004D00E000E300E200000000002C00000041
:1001A000000000000151E4000000500051004F0029
:1001B000005C3A003B003C003D003E003F00400038
:1001C000410042004300440045004C000100010092
:1001D0000100010001000100010001000100010017
:1001E0000100010001000100010001000100010007
:1001F00001000100010001000100010001000100F7
:1002000001000100000001000100010001000100E7
:1002100001000100010001000100010001000100D6
:1002200000000100010001000100010001000000C8
:1002300000000100000000000000010001000000BB
:1002400001000100010001000100010001000100A6
:100250000100010001000100010001000100010096
:100260000100010001000100010001000100010086
:100270000100010001000100010001000100010076
:100280000100010001000100010001000100010066
:100290000100010001000100010000000100010057
:1002A0000100010001000100010001000100010046
:1002B0000100010001000000010001000100010037
:1002C000010001000000000001000000000000002B
:1002D0000100010000000100010001000100010017
:1002E0000100010001000100010001000100010006
:1002F00001000100010001000100010001000100F6
:1003000001000100010001000100010001000100E5
:1003100001000100010001000100010001000100D5
:1003200001000100010001000100010001000100C5
:1003300000000100010001000100010001000100B6
:1003400001000100010001000100010000000100A6
:100350000100010001000100010000000000010097
:100360000000000000000100010000000100010089
:10037000010000000000000000002A2B28000000FF
:100380000000000000000000000000000029000044
:1003900000002C1E3420212224342627252E362D21
:1003A0003738271E1F202122232425263333362EBB
:1003B00037381F0405060708090A0B0C0D0E0F102D
:1003C0001112131415161718191A1B1C1D2F313072
:1003D000232D350405060708090A0B0C0D0E0F1016
:1003E0001112131415161718191A1B1C1D2F313052
:1003F000354C00000000000000000000000000007C
:1004000000000000000000000000000000000000EC
:100410000000000000007E0F00D4FFFFFFC70000B7
:1004200000780E034D0065006F0077003600350040
:10043000000012036D0072006E0069006E0068001B
:1004400076006E0000000403090409025B0003014A
:1004500000A0FA09040000010301010009211101B3
:1004600000012240000705810308000A0904010079
:1004700002030000000921110100012222000705EA
:100480008203200001070503032000010904020084
:10049000010300000009211101000122B600070537
:1004A000840320000A1201000200000008646E3676
:1004B0004D0100010200010660FF0961A10109620E
:1004C000150026FF00952075088102096315002696
:1004D000FF00952075089102C005010902A1018560
:1004E000020901A100050919012908150025019536
:1004F00008750181020501093009311581257F95B3
:10050000027508810609381581257F9501750881D6
:1005100006050C0A38021581257F950175088106AC
:10052000C0C005010980A101850319012AB7001582
:100530000126B700950175108100C0050C0901A1C5
:1005400001850419012AA002150126A00295017552
:10055000108100C005010906A1018505050719E004
:1005600029E7150025019508750181020507190085
:1005700029EF1500250195F0750181020508190183
:100580002905950575019102950175039101C00535
:10059000010906A101050719E029E71500250195C4
:1005A0000875018102950175088101050719002967
:1005B000FF150026FF009506750881000508190142
:1005C0002905950575019102950175039101C000FA
:1005D00011241FBECFEFDAE0DEBFCDBF04B603FEAD
:1005E00027C08091950290919602A0919702B091B8
:1005F00098028730904BA740B04BD1F410929502EF
:1006000010929602109297021092980214BE84B72C
:10061000877F84BF0FB6F894A895809160008861A9
:1006200080936000109260000FBEE0E0F8E309954F
:1006300011E0A0E0B1E0E0E2FAE402C005900D9222
:10064000AA39B107D9F722E0AAE9B1E001C01D92A9
:10065000A539B207E1F70E9459130C940E250C94AA
:10066000000081E0089581E008950C94330308951B
:100670000C9437031F93CF93DF9300D000D01F92C9
:10068000CDB7DEB749835A836B8330919C01898152
:100690009A81311114C0662359F0222349F00E9437
:1006A000DB09182F682F89819A810E94840903C071
:1006B0000E94AF09182F69817A81812F04C00E949E
:1006C000DB0969817A810F900F900F900F900F9046
:1006D000DF91CF911F910C940418FC01262F4081CB
:1006E00051816281738184810C943A0381E0089581
:1006F000CF93DF93EC0160E00E946D03BE01DF91B8
:10070000CF910C943803E1E0F0E0DF0102C0AA0FC2
:10071000BB1F6A95E2F7BD01DF0102C0AA0FBB1F34
:100720004A95E2F7AD01462B01C0EE0F2A95EAF794
:10073000942F9823491302C08E2B0895E0958E23A1
:100740000895242F462F682F8091BB010E948303B8
:100750000C9441090E94DC110E94F4040C940F12C5
:100760000C940B1208950E94D3080E94B2032FEF3D
:1007700084E39CE0215080409040E1F700C00000FD
:100780000C94E71C0F931F93CF93DF938C0161E0D0
:100790000E946D03EC01B8010E945416882309F4ED
:1007A00044C0B801CE010E9435038823F1F1B8019D
:1007B000CE010E9439198823C1F1B801CE010E94EF
:1007C0008B19882391F1B801CE010E94BD1A8823AC
:1007D00061F1F8018281882309F1CA358DE5D807D6
:1007E000C1F050F4C115FCE5DF0781F0CE3DDC45DA
:1007F000A9F40E94D60E19C0CB35EDE5DE0761F0F5
:10080000CC35DD4559F40E94680D08C00E94B30341
:100810000CC00E94710D02C00E94740DC801DF91CE
:10082000CF911F910F910C94310380E0DF91CF9114
:100830001F910F910895DF92EF92FF920F931F93F4
:10084000CF93DF93E82FF0E0EE58FC4FD490282FA1
:1008500026952695269530E0F901EE5EFB4F049132
:10086000877010E0082E02C0159507950A94E2F7EC
:1008700001701127F901EE5FFB4FE490F12C082E77
:1008800002C0F594E7940A94E2F791E0E922FF248C
:10089000F901EE50FC4FC491D0E002C0D595C79548
:1008A0008A95E2F7C170DD270115110519F081EE77
:1008B0000E944E05E114F10419F086EE0E944E05E7
:1008C0008D2D0E947706EF2819F086EE0E94F8051C
:1008D000012B19F081EE0E94F805CD2B51F08CE22E
:1008E000DF91CF911F910F91FF90EF90DF900C94CB
:1008F0007706DF91CF911F910F91FF90EF90DF90DE
:100900000895EF92FF920F931F93CF93DF93EC0123
:10091000162F0AE08881882309F455C0813009F038
:1009200043C08981813041F47E0182E0E80EF11CF0
:100930008A810E94770609C0823049F47E01E2E094
:10094000EE0EF11C8A810E944E05E7012FC0833014
:1009500041F47E01F2E0EF0EF11C8A810E94F8055D
:10096000F4CF843011F0219621C02A81229680E0B4
:1009700090E030E0205331092A30310558F4089FC7
:10098000A001099F500D1124C901840F951F2196C4
:100990002881EFCF009751F0EFE9FFE03197F1F7B1
:1009A00000C000000197F6CF0E941B042196812F02
:1009B000882309F4AFCFEFE9FFE03197F1F700C0EA
:1009C00000008150F5CFDF91CF911F910F91FF90E3
:1009D000EF90089560E00C94810408950C94ED0468
:1009E00081E008950C94F0040895CF93C82F0E94DD
:1009F000EE048C2F0E94F204CF910895CF93DF93E1
:100A0000CDB7DEB72B970FB6F894DEBF0FBECDBFC4
:100A10004F83588769877A878B8761110E94970D6A
:100A20009E012F5F3F4F86E0F90111928A95E9F709
:100A300085E0FE013796D90101900D928A95E1F784
:100A400089819A814C815D81452B31F09F3F31F442
:100A500091E08F3F19F403C091E001C090E090FF56
:100A600009C049815A816B817C818D819E810E9460
:100A7000970C05C0C9010E9476038111F2CF2B9615
:100A80000FB6F894DEBF0FBECDBFDF91CF910895B2
:100A9000FC01808191810E94080A0895CF938823E8
:100AA00009F4A4C0C82F8238C1F40E94F31A81FD52
:100AB0009DC069E380910001909101010E94E91BB2
:100AC0000E94BC0D2FEF81EE94E0215080409040B9
:100AD000E1F700C0000069E319C0833801F50E9406
:100AE000F31A80FD83C063E58091000190910101BC
:100AF0000E94E91B0E94BC0D2FEF81EE94E0215073
:100B000080409040E1F700C0000063E58091000163
:100B1000909101010E94F41BCF910C94BC0D84387C
:100B2000C1F40E94F31A82FD61C067E48091000164
:100B3000909101010E94E91B0E94BC0D2FEF81EEF4
:100B400094E0215080409040E1F700C0000067E44D
:100B5000DDCF8CEF8C0F813AD0F46C2F80910001A7
:100B6000909101010E94691B882349F06C2F8091AC
:100B70000001909101010E94F41B0E94BC0D6C2F9A
:100B800080910001909101010E94E91BC5CF80E294
:100B90008C0F883048F4C77081E001C0880FCA9577
:100BA000EAF70E947A0DB8CFEBE5EC0FE33040F4A2
:100BB000F0E0ED5BFE4F808190E0CF910C94271B1D
:100BC000E8E5EC0FE73150F4F0E0EE0FFF1FEB5ECD
:100BD000FE4F80819181CF910C943D1BC03F30F03E
:100BE0008C2F0E94E613CF910C94B814CF910895E6
:100BF000882309F464C0823879F40E94F31A81FFD3
:100C00005EC069E380910001909101010E94E91B9F
:100C10000E94BC0D69E310C08338B1F40E94F31A3E
:100C200080FF4DC063E580910001909101010E9419
:100C3000E91B0E94BC0D63E58091000190910101C8
:100C40000E94F41B0C94BC0D843879F40E94F31AB2
:100C500082FF35C067E480910001909101010E94FC
:100C6000E91B0E94BC0D67E4E7CF9CEF980F913A17
:100C700010F4682FE1CF90E2980F983050F487700D
:100C800091E001C0990F8A95EAF7892F0E94800DA3
:100C9000D9CF9BE5980F933020F480E090E00C943E
:100CA000271B98E5980F973120F480E090E00C9492
:100CB0003D1B803F20F00E9441140C94B81408950D
:100CC0001F93CF93DF93182FEB010E944E052097BF
:100CD00041F08FE99FE00197F1F700C000002197F4
:100CE000F6CF812FDF91CF911F910C94F8058933B6
:100CF00019F060E070E002C060E570E00C946006FE
:100D0000882321F00E947A0D0C94BC0D089588234D
:100D100021F00E94800D0C94BC0D0895CF92DF92BB
:100D2000EF92FF920F931F93CF93DF937C01062FD7
:100D3000C72FFC01D281158112951F700E944F0DA3
:100D4000882399F0DD2389F08C2F807F803421F077
:100D500080E2800F883048F082E00E940C0E0E94F2
:100D60004F0D91E0D82ED92601C0D12CCC2EC294A3
:100D70008FE0C8228C2D90E08C30910508F085C161
:100D8000FC01EA5AFF4F0C949E248C2F807FCF7079
:100D9000882311F0C295C07FDD2399F0CC2309F49C
:100DA00060C180E2800F883010F0011104C08C2FE8
:100DB0000E947A0D03C08C2F0E948A0D0E94BC0DE8
:100DC00050C1802F0E94F805CC2309F45EC180E257
:100DD000800F883010F0011104C08C2F0E94800D0C
:100DE00003C08C2F0E94900D0E94BC0D4EC18C2F11
:100DF000807FCF70803211F0C295C07F002319F040
:100E00000130C9F022C0DD2371F0112341F011300F
:100E100031F40E949D0D8C2B0E94A50D36C10E94BD
:100E20009D0D8C2B1DC0112319F0113009F42DC11B
:100E30000E94B20D25C0DD2321F0163008F025C137
:100E40000EC0153008F021C11BC0DD2361F0112355
:100E500031F0F701858180FF04C18F7085838C2F6D
:100E60000E94800612C1112359F0093309F00AC10A
:100E7000FFEF27EE83E0F15020408040E1F700C112
:100E80008C2F0E94870601C18C2F869586958370D2
:100E900019F0813061F0F9C0DD2321F0802F9C2F03
:100EA000937002C080E090E00E94271BF6C0DD2313
:100EB00021F0802F9C2F937002C080E090E00E9470
:100EC0003D1BEBC0802FDD2319F00E94E61302C00A
:100ED0000E9441140E94B814E0C08C2F837079F5F1
:100EE000D111D7C0402F429546954770440F440F0B
:100EF000202F2F70042E01C0220F0A94EAF704FF5E
:100F000008C08FE090E001C0880F4A95EAF780950D
:100F100001C080E0C695C695C370822BC23049F0EF
:100F200058F4C13019F00E943509B3C00E9430094D
:100F3000B0C00E943A09ADC00E942E09AAC0DD23AC
:100F400019F08C2F817001C08695882309F4A1C007
:100F5000402F429546954770440F440F202F2F7025
:100F6000042E01C0220F0A94EAF704FF08C08FE0A4
:100F700090E001C0880F4A95EAF7809501C080E0B3
:100F8000C695C695C370822BC23049F058F4C13063
:100F900019F00E9479097DC00E9474097AC00E94EC
:100FA0007E0977C00E94410974C0CF70DD2339F0FB
:100FB0008C2F0E945209802F0E9480066AC0802FC9
:100FC0000E9487068C2F0E945D0963C0023F01F1D9
:100FD00028F4003F41F0013FA1F03FC0033FF9F08A
:100FE000043F39F13AC0DD2341F0153008F04DC01F
:100FF0008C2F8F710E94690948C0163008F045C0D7
:10100000F7CFDD2339F08C2F8F710E9452093DC03C
:10101000DD23C9F38C2F8F710E945D0936C0DD235B
:1010200029F08C2F8F710E944A092FC00E94470916
:101030002CC0DD2349F0CF718C2F0E94520963E050
:101040008C2F0E94F10D21C081E00E940C0E123005
:10105000E0F082E00E940C0E18C0DD2331F0112375
:1010600091F2802F0E944E0510C0112399F209338E
:1010700049F49FEFE7EEF3E09150E040F040E1F7F4
:1010800000C00000802F0E94F80588EF8C0D84308E
:1010900020F40E94F31A0E94F504DD20C9F00E949A
:1010A0004B0D80FD15C0F70112820E94450D0E9474
:1010B0005209C7010E9489080E94450DDF91CF9116
:1010C0001F910F91FF90EF90DF90CF900C945D09EE
:1010D000DF91CF911F910F91FF90EF90DF90CF9014
:1010E00008950F931F93CF93DF93EC01688179816B
:1010F0008A810E94130A8C010E9483090E9422099E
:10110000B801CE010E948E06DF91CF911F910F9101
:101110000895CF93DF93EC01988189812B813C81E5
:10112000232B31F08F3F31F481E09F3F19F403C04E
:1011300081E001C080E080FD19C0CE010E94C203A1
:1011400081110CC00E944F0D882381F08A81882371
:1011500069F082E0DF91CF910C940C0ECE010E94D9
:101160007108CE01DF91CF910C947803DF91CF917C
:10117000089580E090E00E94271B80E090E00E94AC
:101180003D1B0E94970D0E949A0D0E94BC0D0E946B
:10119000E9150C94B81480910001909101010E940E
:1011A000FF1B0C94B9080E94870D0C94CB08E92F03
:1011B000E295EF704E2F50E0FA013297EE30F105D4
:1011C000B0F4EE59FF4F0C949E24803F91F018F438
:1011D000883E68F40EC0843F51F40BC0883E48F04E
:1011E000813F29F406C093FB882780F9089580E0A9
:1011F000089581E00895FC01808191810E94080A90
:101200000E94D7080895CF93DF9300D000D01F929B
:10121000CDB7DEB70F900F900F900F900F90DF912A
:10122000CF910895CF93DF9300D000D000D0CDB7F9
:10123000DEB726960FB6F894DEBF0FBECDBFDF91A6
:10124000CF910895089508950C9423090C942409CE
:101250000E9426098093BC010C94B9080C942809BB
:101260009091BC01892B0C9428099091BC01892391
:101270000C9428099091BC0189270C9428090C949E
:1012800023090E943F098093BB010C94B90880E0B8
:101290000C94410991E001C0990F8A95EAF7892FD2
:1012A0000C94410921E030E001C0220F8A95EAF751
:1012B0008091BB01822B0C94410921E030E001C0F8
:1012C000220F8A95EAF720958091BB0182230C9426
:1012D000410921E030E001C0220F8A95EAF78091B0
:1012E000BB0182270C9441099091BB01892B0C947E
:1012F00041099091BB0189230C9441099091BB0154
:1013000089270C94410908952FE0929F800D1124A4
:10131000E82FE695E695E695877051E001C0550FF8
:101320008A95EAF783E0E89FF0011124E356FE4F27
:1013300020E030E070E04081CB01022E02C09695A3
:1013400087950A94E2F78170819584278523842705
:1013500081932F5F3F4F2330310569F708952FE0C8
:10136000929F800D1124682F669566956695982F3B
:10137000977083E0689FB001112440E050E080E066
:10138000FB01E40FF51FE356FE4F208130E0092EEC
:1013900002C0369527950A94E2F721703327042E70
:1013A00001C0220F0A94EAF7822B4F5F5F4F433050
:1013B000510531F70895CF92DF92FF920F931F935B
:1013C000CF93DF936C010091BB018091BC01082B8E
:1013D000C7E0D0E010E0C8010C2E02C095958795BB
:1013E0000A94E2F780FD04C02197A8F7F12C07C00A
:1013F000FC2EB6018C2F0E94E6100197A9F38F2DC9
:10140000DF91CF911F910F91FF90DF90CF900895C2
:10141000CF93DF93EC010E94DB09BE010E94E6102E
:10142000DF91CF9108951F93CF93DF93EB019091BC
:101430009C01992321F0CB010E94080A13C0882344
:1014400049F0CB010E94DB09182F682FCE010E94C2
:10145000840904C0CB010E94AF09182FBE01812F5F
:101460000E94E610DF91CF911F9108951F93CF93B3
:10147000DF93C091BD0116E08091BE01C81799F0BD
:10148000D0E01C9FF0011D9FF00D1124E154FE4F90
:101490004081518162817381848195810E9412090A
:1014A0002196C770E9CFDF91CF911F9108954091A8
:1014B000EF015091F0016091F1017091F201809182
:1014C000F3019091F4010C9412090F931F93CF93A1
:1014D000DF938091F40182958F7009F05DC0809157
:1014E000F101882309F458C08091BD011091BE011B
:1014F0006091EF017091F001C091F201D091F30180
:1015000091E06F3F09F090E0292F06E0811709F480
:1015100043C0209721F07F3F21F030E003C031E04D
:1015200001C0322F90E030FD34C0089FF001099FC8
:10153000F00D1124DF01A154BE4F11963C9111977B
:10154000371327C03C91361324C012963C91129752
:1015500031111FC013964D915C9114974C1B5D0B7C
:10156000483C5105B0F48091F4018F708061809304
:10157000F401EC53FE4F80818F70806180838FEE89
:1015800091E00E948908DF91CF911F910F910C94F7
:10159000360A01968770BACFDF91CF911F910F91D4
:1015A00008959F92AF92BF92CF92DF92EF92FF92F7
:1015B0000F931F93CF93DF93CDB7DEB761970FB62D
:1015C000F894DEBF0FBECDBF8C0185E0F801DE01CF
:1015D0001D9601900D928A95E1F7F801E2809091B5
:1015E000EF016091F0012091F2013091F30121159A
:1015F000310531F06F3F31F481E09F3F19F403C0B2
:1016000081E001C080E0F82FF1709F2E80FD3FC186
:10161000F80140815181A380B4808FEEC82E81E013
:10162000D82EF090F101F501E21BF30BFF2009F435
:10163000D9C08091F401E83CF10508F095C0282F4D
:10164000207F09F052C0561313C0491311C0FE2C5D
:10165000E1100EC08F7080618093F4010E94570AE0
:10166000C6010E9489088091F401F80185834CC16C
:10167000AB2831F05F3F31F481E04F3F19F403C0F4
:1016800081E001C080E080FD03C081E08E2502C0C2
:1016900080E090E0F82FF170FF2E80FF1CC0809159
:1016A000BD012091BE0136E0821709F40BC190E024
:1016B000389FF001399FF00D1124E154FE4F6181F4
:1016C000561306C06081461303C06281E61203C050
:1016D00001968770E9CFFE2CEE2009F415C18091A8
:1016E000F40181608093F40154C0561306C049137D
:1016F00004C0E11002C0F80199C0C8010E94FB08B3
:10170000882361F1EE2051F12091F401822F82951E
:101710008F7090E0029774F08091EF019091F0014A
:1017200098878F831986BB86AA862C87CE01079659
:101730000E94890886E0F801AFEEB1E001900D92B9
:101740008A95E1F70E94650A0E94570A0AC0561757
:1017500011F1C8010E94FB0881112CC0C8010E9430
:101760008908FF24F394D0C0282F207F81F77A2D99
:10177000B98AA88A6E2D89890E9403098FEE91E0AB
:101780000E94890886E0F60111928A95E9F70E9485
:10179000570AF12CB9C04913DCCFE110DACFF801B8
:1017A0008583C8010E94890886E0F60111928A9516
:1017B000E9F7AAC0EE2091F22091F401822F8295E0
:1017C0008F7090E002970CF4B5CF8091EF0190916B
:1017D000F0019A8389831B82BD82AC822E83CE0165
:1017E0000196A6CFE83CF10508F044C0FE2CEE209F
:1017F00009F4B4CF561330C049132EC02091F40120
:1018000020FD21C0822F82958F70482F50E0411516
:101810005105C9F0F80125834F30510541F08F5F24
:10182000982F9295907F822F8F70892B8583C80186
:101830000E94890886E0F801AFEEB1E001900D92B8
:101840008A95E1F73CC086E0F801AFEEB1E0019087
:101850000D928A95E1F758C0C8010E94FB088111DA
:1018600069CF8091F40181608093F401C8010E94E6
:1018700089084AC07A2DB98AA88A6E2D89890E9462
:10188000030986E0F60111928A95E9F718C0EE2067
:1018900009F464CFC8010E94FB08F82E882309F4DC
:1018A0005DCF86E0F801AFEEB1E001900D928A9530
:1018B000E1F78FEE91E00E9448050E94650A0E94C0
:1018C000570A22C04D875E878D859E850E94080A33
:1018D000292F22952F70223028F49F7039F0811122
:1018E00005C00BC0243028F49F7049F4805E883016
:1018F00020F0C8010E9489089F2CF92C05C0F8012E
:101900009581907F99F7F9CF8F2D61960FB6F89456
:10191000DEBF0FBECDBFDF91CF911F910F91FF9022
:10192000EF90DF90CF90BF90AF909F9008951F935E
:10193000CF93DF93CDB7DEB72C970FB6F894DEBF09
:101940000FBECDBF4F83588769877A878B879C8767
:10195000CE0107960E94D10A8823D1F09F81888505
:101960002A853B85232B31F08F3F31F481E09F3F67
:1019700019F403C081E001C080E080FD47C04F81C1
:10198000588569857A858B859C850E9412093EC0A1
:1019900086E0FE013796DE01119601900D928A9540
:1019A000E1F7FF81E8856A857B856115710531F076
:1019B000EF3F31F481E0FF3F19F403C081E001C043
:1019C00080E080FD23C02091BE0130E0C901019676
:1019D000877099274091BD0150E084179507F1F178
:1019E000F983EA837D836C8396E0929FD001939F75
:1019F000B00D1124A154BE4FFE01319601900D92FD
:101A00009A95E1F78093BE010E94360A16E0809114
:101A1000BD019091BE01891771F1189FC001112479
:101A200081549E4F0E94D10A882329F1E091BD0183
:101A30001E9FF0011124E154FE4F408151816281CB
:101A40007381848195810E9412098091BD0190E08B
:101A50000196877099278093BD01D9CF0E94D30842
:101A60001092BE011092BD01EFEEF1E086E0DF01C1
:101A70001D928A95E9F72C960FB6F894DEBF0FBE3B
:101A8000CDBFDF91CF911F9108958091F50185958C
:101A90008595859508958091F501877008959091B9
:101AA000F501977081E009F480E0089590916F024C
:101AB00092FB222720F9281751F080FB92F990938E
:101AC0006F0280916E0290916F020C94530E0895F4
:101AD00080916F0282FB882780F991E089270C941E
:101AE000560D81E00C94560D80E00C94560D8091BB
:101AF0001902089590911902892B80931902089573
:101B0000809590911902892380931902089510926B
:101B10001902089590911802892B80931802089554
:101B2000809590911802892380931802089510924D
:101B3000180208951092170208958091F6010895F1
:101B400008950C94A00D0C94A10D90916F0292FD3C
:101B500008C09091F601981721F08093F6010C943B
:101B6000A30D08958091F601882329F01092F601C3
:101B700080E00C94A30D0895E0910001F091010123
:101B8000809119028083E0910001F0910101908120
:101B900080911802892B8083E0910001F09101016E
:101BA000908180911702892B80838091F601882390
:101BB00081F0E0910001F09101019081892B8083F7
:101BC00080910001909101010E94531B81110E949C
:101BD000B20D80910001909101010C94FF1A0C94B8
:101BE000A00D90916F0292FD10C098E0899F900126
:101BF0001124262B2093F5010E9452098091F501B2
:101C00008595859585950C94EF0D0C94520910924D
:101C1000F50180E00C94EF0D2091F5018095822371
:101C20008093F501982F977041F430E0482F082EEB
:101C3000000C550B2417350721F490916F0292FF89
:101C400007C08595859585950E945D090C94070EC2
:101C500008956FEF7FEF80E090E00C94F82480E02F
:101C600090E00E94D424893E9E4F11F40C94F71505
:101C700080E0089582E090E00C94CC2483E090E032
:101C80000C94CC24CF9384E090E00E94CC24C82F05
:101C900082E290E00E94CC242C2F30E0A901582B46
:101CA000CA01CF910895CF93C92F682F84E090E0A7
:101CB0000E94DA246C2F82E290E0CF910C94DA2417
:101CC000AB01BC018FE090E00C94EC24AB01BC01B3
:101CD00083E190E00C94EC2460E070E0CB010C9484
:101CE000660E60E070E0CB010E94600E0C946C0EFA
:101CF00069EE7EEF80E090E00E94F82460E082E0F0
:101D000090E00E94DA2460E083E090E00E94DA2410
:101D10001092BC0160E084E090E00E94DA2460E070
:101D200082E290E00E94DA2460E085E090E00E9488
:101D3000DA2460E086E090E00E94DA246FEF87E02A
:101D400090E00E94DA2440E050E0BA0188E090E0A0
:101D50000E94EC2460E08DE090E00E94DA2440E0F4
:101D600050E0BA0188E190E00E94EC2460E087E155
:101D700090E00E94DA2440E050E0BA018CE190E06B
:101D80000E94EC2460E070E080E290E00E94F82481
:101D900040E050E0BA0188E190E00E94EC2480E04D
:101DA0000E9410160E943C160C94710E0C94780E32
:101DB000682F8EE090E00C94DA240E94A61C6093B9
:101DC000290270932A0280932B0290932C02609335
:101DD000250270932602809327029093280208958B
:101DE00085B7806885BF85B7806885BF089581E025
:101DF00008950C94F70E08950C94FB0E0C94FB0EB2
:101E00000C94FE0E0C94FB0E0C94020F0C94FB0E23
:101E10000E94F00E82EC91E10E940B1D0E94060FC1
:101E20000C94040F0E94FC0E0C94FB0E0E94911C5B
:101E30000E944B160E94C0120C94000F6F927F926A
:101E40008F929F92AF92BF92CF92DF92EF92FF92CA
:101E50000F931F93CF93DF93CDB7DEB72A970FB6BB
:101E6000F894DEBF0FBECDBF0E94D31281110E9435
:101E7000DD0E3BE1832E32E0932E00E010E0C02E19
:101E8000802F0E94F6115C01F401619071904F0166
:101E90006826792661147104B1F40F5F1F4F053075
:101EA000110569F78FEF89838A831B820E949A1C30
:101EB0008160782F9D838C8349815A816B818D81CC
:101EC0000E94FE043AC080912D0281FD0E94FF1104
:101ED000D12CEE24E394F12CC3018E219F21892B78
:101EE00029F10E94F90E8823A9F0DE82CF82AE206C
:101EF000BF2081E0AB2809F480E088870E949A1C0B
:101F00008160782F9A8789874E815F8168858A856D
:101F10000E94FE04000F111FF801E55EFD4F808155
:101F20009181E826F926F182E08207C0D394EE0C75
:101F3000FF1CFFE0DF12D0CFB0CF0E94D6140E946A
:101F4000F31A90911A028917D1F00E94F31A809324
:101F50001A022A960FB6F894DEBF0FBECDBFDF91EE
:101F6000CF911F910F91FF90EF90DF90CF90BF9096
:101F7000AF909F908F907F906F900C94F5042A966D
:101F80000FB6F894DEBF0FBECDBFDF91CF911F918A
:101F90000F91FF90EF90DF90CF90BF90AF909F9008
:101FA0008F907F906F900895CF93DF930E94EB10F6
:101FB000EC01811521E5920708F045C0811530E557
:101FC000930708F094C0883E910528F5803E91055E
:101FD00008F0F8C0883A910570F4853A910508F048
:101FE0007CC08130910509F475C008F4E8C00497FD
:101FF00008F0E8C0E4C08F3B910508F0E0C0C85A83
:10200000D0E0CC0FDD1FCA5BDE4F0990D881C02D18
:10201000CE019464D8C0811540E2940758F481152C
:1020200051E0950708F0CEC0803F910508F4C7C085
:102030009065C9C0C11580E4D80708F4C0C0DF703E
:10204000CE01906AC0C0811525E59207A8F48115DC
:1020500034E5930708F095C0811543E5940708F02F
:102060007BC0811552E5950708F061C0D82FCC27B9
:10207000CE01816F906AA7C0C11589E5D807A0F489
:10208000C11528E5D20708F082C0C11536E5D3078F
:1020900008F095C08C2F0E947F118F7190E0D82F8F
:1020A000CC27CE0190628FC0C1154AE5D40708F451
:1020B00074C0CE0190568115904208F080C08D2FDB
:1020C0008F710E947F11DD27D0628F71AE01582B76
:1020D000CA0179C081E090E076C0C55AD0E0CC5802
:1020E000DE4F8881C82FD0E0CE0190646CC074E0D0
:1020F000969587957A95E1F7282F23703C2F3370BA
:1021000081E090E002C0880F991F3A95E2F79C6841
:10211000AC01522B9A019C2F9F709695969550E298
:10212000959FE0011124C9018C2B9D2B4CC083701D
:10213000992721E030E002C0220F331F8A95E2F791
:102140009C2F9695969580E2989FE0011124C22BD2
:10215000D32BCE019C6837C08370992721E030E0F3
:1021600002C0220F331F8A95E2F79C2F9695969511
:1021700040E2949FE0011124C22BD32BCE019A6838
:1021800022C0D82FCC27CE01846F906A1CC0DC2FD0
:10219000CC27CE01806F906A16C08C2F8F700E9462
:1021A0007F1194E0D695C7959A95E1F7CF70D0E06E
:1021B000DC2FCC27D0699E01282BC90104C080E008
:1021C00090E001C0CE01DF91CF9108950E940418E4
:1021D0000E94D40F08958238910569F1B0F48133DB
:1021E000910509F46DC048F48932910509F463C082
:1021F0008A32910509F469C008958533910509F47F
:1022000055C089339105B9F00895833E910569F170
:1022100038F4803E9105B1F0823E910509F10895B0
:10222000863E9105A9F1873E9105B9F1843E91055D
:1022300009F064C023C020916E0220FD4FC021FD33
:102240004DC0089580916E0280FD44C080916F0260
:1022500080FF44C080916E0284FD42C083EE4DC079
:1022600080916E0282FF38C0F5CF80916E0282FDB0
:1022700033C080916F0280FD31C0ECCF80916F023E
:1022800081FF32C080916E0284FD2AC087EE35C086
:1022900080916E0283FF26C0F5CF80916E0283FD90
:1022A00021C080916F0281FD1FC0ECCF80916E0232
:1022B00085FD1CC01DC080916E0285FD19C016C031
:1022C00080916E0286FD16C017C080916E0286FD59
:1022D00013C010C089E311C082EE0FC080EE0DC0A4
:1022E00080E00BC086EE09C084EE07C089E205C01D
:1022F00085E303C08AE201C081E390E008959091F4
:102300006E0292FF0DC0282F2871283019F4877FA4
:10231000846006C0282F2471243011F48B7F8860DC
:1023200093FF0DC0282F2871283119F4877E84610E
:1023300006C0282F2471243111F48B7E88612091EE
:102340006F0220FF0DC0382F3871383019F4877FA5
:10235000816006C0382F3171313011F48E7F886072
:1023600021FF0DC0282F2871283119F4877E816143
:1023700006C0282F2171213111F48E7E886194FDD1
:10238000877E089580E008950C94290E0E94D31250
:102390008FE39CE90197F1F700C000000E94D3127F
:1023A00080E00E94F61180FF04C00E94C4110C94CA
:1023B000E71C08950C94C6110E942F0E811102C0D3
:1023C0000E94D60E0E943A0E80932D020E94420E69
:1023D00090936F0280936E020E94DA110E943E0E6B
:1023E0000E942E098091BB010C943F09E82FF0E078
:1023F000EE0FFF1FE658FD4F8081918108950895EB
:1024000080EA8A95F1F7089500C008950C940012AF
:1024100008950C9408120C9409120C9408120C9450
:102420000D12F894E82FE295EF70F0E031A1282F1B
:102430002F7081E090E001C0880F2A95EAF7982F6D
:102440009095932391A392A1892B82A378940895C8
:102450000F931F93CF93DF93C6E8D1E089918F3F0D
:1024600011F00E94111281E0CB38D807B9F7C7E705
:10247000D1E006E811E089918F3F11F00E9411121E
:102480000C171D07C1F7DF91CF911F910F91089590
:10249000AF92BF92CF92DF92EF92FF920F931F9372
:1024A000CF93DF938C01C62FD0E0CE018A579E4F89
:1024B0006C01DC019C919F3F09F457C0B62EF89443
:1024C000E92FE295EF70F0E081A19F7021E030E00C
:1024D00001C0220F9A95EAF7822B81A382A1209551
:1024E000282322A378940E940412E7E7F1E020E079
:1024F00030E0E12CF12C41E050E081918F3FC1F0C0
:10250000A82FA295AF70B0E090966C9170E08F709C
:10251000DB0102C0B595A7958A95E2F7A0FD08C03A
:10252000CA01022E02C0880F991F0A94E2F702C066
:1025300080E090E0E82AF92A2F5F3F4F2F303105E5
:10254000E1F6F60180818F3F11F00E94111261E0E7
:10255000E114F10409F460E08B2D0E940612CC0F07
:10256000DD1FC00FD11FF982E882DF91CF911F914B
:102570000F91FF90EF90DF90CF90BF90AF900895B4
:102580000E942812E0E7F2E0AAE7B2E0119211926D
:102590001D921D9282E0EA37F807C1F785E00E949C
:1025A0001E130C94AA03FF920F931F93CF93DF93F4
:1025B000CDB7DEB72A970FB6F894DEBF0FBECDBFFA
:1025C0008E010F5F1F4F8AE0F80111928A95E9F79B
:1025D000F12C6F2DC8010E944812F394F5E0FF1210
:1025E000F8CF4AE050E0B80180E792E00E94BF24B3
:1025F000FF24F394009709F4F12C892B41F08AE031
:10260000F801A0E7B2E001900D928A95E1F72F2D35
:1026100045E06AE772E080E792E00E941F130E94A3
:10262000B0038F2D2A960FB6F894DEBF0FBECDBF34
:10263000DF91CF911F910F91FF9008950895FF9220
:102640000F931F93CF93DF93F82E092F162FD72FB9
:10265000C42F222349F081E0809330020E949A1C0B
:1026600090932F0280932E02809130028823D9F01C
:1026700080912E0290912F020E94B21C059798F033
:10268000EF2DF02FA12FBD2F80E090E04C2F50E0D8
:102690008417950734F4219131912D933D93019640
:1026A000F7CF10923002DF91CF911F910F91FF90E1
:1026B00008950E94111C0E94B41E0E94CD1E0E940B
:1026C000DF1E0E94120FFBCF8091370280FF0BC0EC
:1026D0006091070185E0689FB001112475956795A9
:1026E000759567952BC081FF09C06091070185E052
:1026F000689FB00111247595679520C082FF07C0BF
:102700006091070185E0689FB001112417C0909186
:1027100036029923D1F060910601961788F720912F
:10272000070185E0289F90011124929FA001939FAB
:10273000500D112470E0CA010E948A24603871058E
:1027400040F46115710519F406C065E070E0862F4C
:1027500008958FE7089581E008958091370280FF02
:1027600008C06091030170E0759567957595679550
:1027700021C081FF06C06091030170E075956795E7
:1027800019C082FF04C06091030170E010C09091F5
:102790003502992399F0609102019617A0F7809174
:1027A0000301899FC001112470E00E948A246038CF
:1027B000710540F46115710519F406C061E070E01F
:1027C000862F08958FE7089581E00895803F21F4D2
:1027D0000E946413819504C0813F29F40E94641310
:1027E00080933B020895823F21F40E9464138195F7
:1027F00004C0833F29F40E94641380933A02089531
:10280000893F19F40E94AD1305C08A3F31F40E943C
:10281000AD13819580933C0208958B3F21F40E9473
:10282000AD13819504C08C3F29F40E94AD138093B1
:102830003D0208959CE0980F953078F421E030E057
:10284000A90102C0440F551F9A95E2F7CA01909161
:102850003902892B8093390208958D3F21F48091AC
:10286000370281600BC08E3F21F480913702826075
:1028700005C08F3F29F4809137028460809337022E
:102880000895803F39F490913B0297FF35C0109234
:102890003B0259C0813F29F490913B021916BCF3C9
:1028A0002BC090913A02823F29F497FF25C01092E5
:1028B0003A0249C0833F19F41916CCF31DC0909118
:1028C0003C02893F29F41916BCF410923C023BC02B
:1028D0008A3F19F497FF10C0F8CF8B3F39F49091DD
:1028E0003D0297FF09C010923D022DC08C3F21F49C
:1028F00090913D021916BCF39CE0980F953080F43E
:1029000021E030E0A90102C0440F551F9A95E2F77B
:10291000CA0180959091390289238093390213C0AE
:102920008D3F21F4809137028E7F0BC08E3F21F4C2
:10293000809137028D7F05C08F3F29F48091370247
:102940008B7F8093370280913A02811106C080917B
:102950003B02811102C01092360280913C0281112B
:1029600006C080913D02811102C010923502089587
:102970000E949A1C20913A02211104C020913B022E
:10298000222321F0909334028093330220913C0261
:10299000211104C020913D02222321F090933202A4
:1029A0008093310288E392E00C94191BEF92FF921E
:1029B0000F931F93CF93DF9300D000D000D0CDB7FB
:1029C000DEB786E0E8E3F2E0DE01119601900D92B9
:1029D0008A95E1F7E0903A02F0903B0200913C02C8
:1029E00010913D0210923A0210923B0210923C026A
:1029F00010923D02E11003C0FF2009F45DC08091F8
:102A00003302909134020E94B21CAC0190913602C4
:102A1000992339F02091080130E02417350758F048
:102A20004BC0209109018AE0289F900111242417AE
:102A3000350718F041C09F3F19F09F5F9093360211
:102A4000EE2061F00E9464131E1414F09FEF01C089
:102A500091E0989F902D112490933A02FF2061F00D
:102A60000E9464131F1414F09FEF01C091E0989F1F
:102A7000902D112490933B0230913A023323E1F0E0
:102A800020913B022223C1F045EB3403C001112405
:102A9000992319F090933A0203C081E080933A029F
:102AA00035EB2303C0011124992319F090933B02C5
:102AB00003C081E080933B02011103C0112309F49C
:102AC0005DC080913102909132020E94B21CAC0133
:102AD00090913502992339F02091040130E02417B8
:102AE000350758F04BC0209105018AE0289F9001DE
:102AF00011242417350718F041C09F3F19F09F5F3C
:102B000090933502002361F00E94AD13101614F06B
:102B10009FEF01C091E0989F902D112490933C026B
:102B2000112361F00E94AD13111614F09FEF01C044
:102B300091E0989F902D112490933D0230913C029A
:102B40003323E1F020913D022223C1F045EB340311
:102B5000C0011124992319F090933C0203C081E035
:102B600080933C0235EB2303C0011124992319F013
:102B700090933D0203C081E080933D0280913A0230
:102B800081110BC080913B02811107C080913C02F2
:102B9000811103C080913D0281110E94B814EB8223
:102BA000FC820D831E8386E0FE013196A8E3B2E02D
:102BB00001900D928A95E1F726960FB6F894DEBF44
:102BC0000FBECDBFDF91CF911F910F91FF90EF907E
:102BD0000895E8E3F2E086E0DF011D928A95E9F7C7
:102BE000109236021092350210923702089583E255
:102BF00090E00E94CC24813281F484E290E00E9433
:102C0000CC24803151F485E290E00E94CC2491E004
:102C1000843209F090E0892F01C080E0817008952E
:102C2000CF93C82F811102C06FEF01C061E283E230
:102C300090E00E94DA24C11102C06FEF01C060E190
:102C400084E290E00E94DA24C11102C06FEF01C05B
:102C500064E285E290E0CF910C94DA24089586E254
:102C600090E00E94CC24682F70E080E090E008950E
:102C700086E290E00C94DA2480E00E94101660E076
:102C800070E0CB010E9438160E947F170E945E18E8
:102C900081E00C9410160E942E160E94F7158111E7
:102CA00002C00C943C160895CF93FB01C281CC2343
:102CB000E9F09C0122513F452031310520F4825139
:102CC0000E946E180CC08031FFE59F0751F481E02F
:102CD0000E94520943E062E081E00E94A103C0E04B
:102CE00018C081319F45A9F482E0F2CF8031EFE531
:102CF0009E0711F481E004C081319F4549F482E0D0
:102D00000E945D0943E062E081E00E94A10301C0EE
:102D1000C1E08C2FCF9108952FEFFC0120830895FF
:102D2000EF92FF920F931F93CF93DF93EC01062F47
:102D3000E8818E2F90E0FC013197E331F10508F036
:102D400091C0E059FF4F0C949E24198289E04DC038
:102D50008981823039F0833061F0813029F50E9419
:102D6000A61C02C00E942F169A838B837C836D83DE
:102D70007BC07E0110E0812F0E94F611F701928343
:102D800083831F5FF2E0EF0EF11C1530A1F76CC0DA
:102D90008981823049F46A817B818C819D810E9486
:102DA000A4240E94381660C0602FCE010E948C16A9
:102DB0005BC04B816A8189810E9451179C838D83FE
:102DC00053C02C813D813227232732274B816A81D2
:102DD00089810E946A1748C00E947F1745C00E94DF
:102DE000111824C00E94131899838A833DC06B81F7
:102DF00070E089819A81AE014C5F5F4F98278927E7
:102E000098270E94161830C06B8170E089819A81E2
:102E1000AE014C5F5F4F9827892798270E943B1887
:102E200023C00E945E1820C00E943E1789831CC0E8
:102E30006B8170E089819A81AE014C5F5F4F98276A
:102E4000892798270E94BE170FC06B8170E0898187
:102E50009A81AE014C5F5F4F9827892798270E947F
:102E6000E21702C08FEF8883602FCE01DF91CF91F0
:102E70001F910F91FF90EF900C94A51D84E0089591
:102E800050E0440F551F2EE1629F400D511D11244B
:102E90009A0166E9869F200D311D1124C90187968C
:102EA00008950F931F93CF93DF930E9440178C01D7
:102EB0000E94CC24C82FD0E0DC2FCC27C80101967B
:102EC0000E94CC249E01282BC901DF91CF911F9134
:102ED0000F9108950F931F93CF93DF93122F032F1A
:102EE0000E944017EC01602F0E94DA24612FCE016E
:102EF0000196DF91CF911F910F910C94DA24AF923C
:102F0000BF92CF92DF92EF92FF920F931F93CF93D6
:102F1000DF93A12CE12CF12CB12C00E010E0C0E0FB
:102F2000D0E06701C00ED11EFE01EE0FFF1FEC0DB9
:102F3000FD1DE65EFE4F259134914C2F6B2D8A2DA1
:102F40000E946A172196CF30D10571F7025E1F4F9C
:102F5000B39485E0B812E3CF86E9E80EF11CA394A0
:102F600084E0A812D9CFDF91CF911F910F91FF90EC
:102F7000EF90DF90CF90BF90AF900895EF92FF92C7
:102F80000F931F93CF93DF93EA017A01E60EF71EAA
:102F90008C01C8018796CE15DF0569F0083522E05F
:102FA000120720F40E94CC24888301C01882219645
:102FB0000F5F1F4FEECFDF91CF911F910F91FF90C9
:102FC000EF900895EF92FF920F931F93CF93DF93AB
:102FD000EA017A01E60EF71E8C01C8018796CE152C
:102FE000DF0559F0083522E0120718F468810E94C5
:102FF000DA2421960F5F1F4FF0CFDF91CF911F9101
:103000000F91FF90EF900895462F843038F475307B
:1030100028F46F3018F4672F0C94511780E090E07B
:10302000089580E1089581E891E00895EF92FF927C
:103030000F931F93CF93DF93EA017A01E60EF71EF9
:103040008C01C80181589D4FCE15DF0569F001380C
:1030500021E0120720F40E94CC24888301C018824A
:1030600021960F5F1F4FEDCFDF91CF911F910F91F1
:10307000FF90EF900895EF92FF920F931F93CF93DD
:10308000DF93EA017A01E60EF71E8C01C801815830
:103090009D4FCE15DF0559F0013821E0120718F4D5
:1030A00068810E94DA2421960F5F1F4FEFCFDF91D6
:1030B000CF911F910F91FF90EF900895CF93DF93E1
:1030C000CFE7D2E060E0CE010E94DA242196C1155C
:1030D00084E0D807B9F7DF91CF910895DF92EF929E
:1030E000FF920F931F93CF93DF9300D000D0CDB703
:1030F000DEB7F82E8FE08F15E8F18FEF93E00E9496
:10310000CC24811137C00FE712E0FF2069F00115D0
:1031100084E0180779F1C8010E94CC24811101C014
:10312000FA940F5F1F4FF1CF19821A821B821C8203
:10313000DD24D39478018FEFE81AF80AC8010E94C1
:10314000CC2489831A828823A9F09FEF980F9330AB
:1031500058F48A83D9820E5F1F4FC7010E94CC2486
:103160008B83882339F07801CE0101960E94EA040E
:103170008701E0CF0F900F900F900F90DF91CF91CC
:103180001F910F91FF90EF90DF9008950F931F9381
:10319000CF93DF93C42FD22FFC0182818823C9F003
:1031A000409340020E949A1C90933F0280933E02FB
:1031B00080E28C0F883008F057C0C77081E001C0F2
:1031C000880FCA95EAF7DF91CF911F910F910C9468
:1031D000800680914002481330C080913E02909159
:1031E0003F020E94B21C883C910538F510E21D0F89
:1031F000CD17B9F080E28C0F883040F4C77081E0C1
:1032000001C0880FCA95EAF70E948706183028F592
:1032100081E09D2F977001C0880F9A95EAF70E9470
:103220008006802F0E9477061830F0F4D77081E076
:1032300001C0880FDA95EAF70AC080E28C0F883067
:1032400098F4C77081E001C0880FCA95EAF7DF9152
:10325000CF911F910F910C948706802FDF91CF9112
:103260001F910F910C947706DF91CF911F910F91D1
:1032700008950F939C01CB01233F4CE5340731F1B6
:1032800088F4283DFCE53F07D9F0293D4CE534079B
:1032900079F1273D3C45A9F506E221EE41EE67EDC7
:1032A0007CE52BC0253FFCE53F07E1F0A8F0263F79
:1032B0003C4539F507E225EE46EE66EF7CE51DC09C
:1032C00007E225EE45EE68ED7CE517C006E221EE4B
:1032D00040EE63EF7CE511C007E225EE44EE64EFBB
:1032E0007CE50BC006E221EE42EE65EF7CE505C011
:1032F00008E221E045EE69ED7CE50E94C61880E019
:1033000008C0FC018281882319F01092400201C09C
:1033100081E00F910895CF93DF93EC01FB0182814F
:10332000882309F426C1C330FDE5DF0760F4CA3FF6
:103330009CE5D90768F49E0122503C4524313105B3
:1033400008F018C105C0C136EDE5DE0709F012C16D
:103350000E94420E90936F0280936E02C031FCE592
:10336000DF0709F4CAC008F041C0C8309CE5D9079E
:1033700009F4A4C0F0F4C430FCE5DF0709F48CC004
:1033800068F4C2309CE5D90709F482C0C330DC453B
:1033900009F0E5C080916E028260DFC0C630FCE5B6
:1033A000DF0709F483C008F085C080916E02886051
:1033B000D4C0CC309CE5D90709F490C068F4CA3079
:1033C000FCE5DF0709F47EC008F084C00E94D30842
:1033D00080916E028068C1C0CE309CE5D90709F4A7
:1033E00081C008F086C080916E0294C0CC3FFCE59D
:1033F000DF0709F47BC038F5C4319CE5D90709F42F
:103400009AC058F4C231FCE5DF0709F47AC008F02D
:103410007EC080916E028F7BA0C0CA3F9CE5D90719
:10342000F1F108F03FC0C531DC4509F098C080914A
:103430006E0282FB222720F991E0922790FB82F90D
:1034400090FB83F98AC0C1158DE5D80709F467C0E0
:1034500050F480916F02CE3FECE5DE07C1F108F039
:103460005BC08D7F65C0C2308DE5D80709F471C09F
:1034700008F46DC0C136DD4509F071C080916E025F
:1034800084FB222720F991E0922790FB84F965C004
:1034900080916E02816061C080916E0216C0809141
:1034A0006F0216C080916F02826042C080916E02EE
:1034B000806153C080916E0280624FC080916E0225
:1034C00080644BC080916E028860846046C08260D8
:1034D00081602EC080916E028E7F3FC080916E020F
:1034E0008D7F3BC080916E02877F37C080916F02D5
:1034F00014C080916E028F7E30C080916E028F7DED
:103500002CC00E94D30880916E028F7726C08091D4
:103510006E02877F8B7F21C08D7F8E7F09C0809157
:103520006F02982F909591708E7F892B90FB81F977
:1035300080936F0214C00E94D30880916E0287FBB3
:10354000222720F991E0922790FB87F906C081E0BD
:1035500001C080E00E94D80E02C080936E0280916C
:103560006E0290916F020E94530E0E94D30880E079
:1035700001C081E0DF91CF910895CF93DF93863131
:103580009C4541F5EB010E94770D982F8A8120918F
:10359000000130910101882379F09A7A81E009F4E1
:1035A00080E080934102911102C069E201C065E3AD
:1035B000C9010E94E91B0AC080914102811102C029
:1035C00069E201C065E3C9010E94F41B0E94BC0DC1
:1035D00080E001C081E0DF91CF9108959093470290
:1035E000809346020895E0914602F0914702309799
:1035F00021F00190F081E02D099480E00895E091A0
:103600004602F0914702309799F02091140122234D
:1036100059F020916E0227FF07C0DC012C91119612
:103620002C93119725E02C930280F381E02D0994CF
:103630000895E0914602F0914702309739F022E078
:10364000DC012C930480F581E02D099408952091EC
:103650004402309145022817390771F090934502D2
:1036600080934402E0914602F0914702309721F0A6
:103670000680F781E02D099408952091420230914F
:1036800043022817390771F0909343028093420256
:10369000E0914602F0914702309721F00084F185D5
:1036A000E02D09940895FC0132968091140188233D
:1036B00031F080916E0287FF02C09EE101C096E06A
:1036C00080E0915028F021912223D9F38F5FF9CF28
:1036D0000895662351F1209114012223E9F02091ED
:1036E0006E0227FF19C0462F4695469546954E31E6
:1036F000E0F4677021E030E002C0220F331F6A95CA
:10370000E2F7FC01E40FF11D828190E028233923C8
:1037100081E0232B69F409C0FC01329608962191BF
:10372000621729F0E817F907D1F780E0089581E0E2
:1037300008959C01FC0132969FEF80E0419146176D
:1037400089F09F3F19F4411101C0982F8F5F863097
:10375000A9F79F3F39F0F901E90FF11D97FDFA959F
:103760006283089508959C012A5F3F4FFC014281C6
:10377000461301C01282019682179307B9F7089584
:10378000262F2695269526952E3168F4FC01E20F0A
:10379000F11D677021E030E001C0220F6A95EAF761
:1037A0008281282B22830895262F269526952695FB
:1037B0002E3170F4FC01E20FF11D677021E030E062
:1037C00001C0220F6A95EAF720958281282322837F
:1037D000089520911401222329F020916E0227FDE3
:1037E0000C94C01B0C94991B20911401222329F0E6
:1037F00020916E0227FD0C94D41B0C94B31B2091D6
:103800001401FC013296222331F080916E0287FF71
:1038100002C08EE101C086E0DF011D928A95E9F7C2
:103820000895089508950C94121C0C94121CCF93C3
:103830000E94151C0E94D3120E94131CC0E08C2F02
:103840000E94F611892B29F4CF5FC530C1F780E0C3
:1038500001C081E0CF9108950C94121C0C942C1C93
:1038600080918C02843049F10E942E1C80E00E94DD
:10387000F5041092480220E488E190E00FB6F89435
:10388000A895809360000FBE2093600083B7817F6E
:10389000846083BF83B7816083BF7894889583B742
:1038A0008E7F83BF0FB6F894A895809160008861E1
:1038B00080936000109260000FBE08950C94121C5B
:1038C0000E94D3080E94F31A0E94F5040C945E1C17
:1038D0001F920F920FB60F9211248F939F93AF9365
:1038E000BF9380914802811113C08091840290910E
:1038F0008502A0918602B09187024196A11DB11D5B
:103900008093840290938502A0938602B0938702ED
:10391000BF91AF919F918F910F900FBE0F901F900D
:10392000189582E084BD93E095BD9AEF97BD809392
:103930006E0008952FB7F8948091840290918502CB
:10394000A0918602B09187022FBF08952FB7F894F7
:103950006091840270918502809186029091870225
:103960002FBF08959C014FB7F894809184029091E5
:103970008502A0918602B09187024FBF821B930BF4
:10398000089578941F920F920FB60F9211248F937F
:103990009F93AF93BF938091840290918502A091F1
:1039A0008602B09187020196A11DB11D8093840209
:1039B00090938502A0938602B0938702BF91AF9146
:1039C0009F918F910F900FBE0F901F90189581E0DF
:1039D0008093E00080E28093D8001092C9008FE1CC
:1039E0009EE40197F1F700C0000087E090EBDC0156
:1039F0008093950290939602A0939702B0939802B9
:103A00009CE088E10FB6F894A895809360000FBE03
:103A100090936000FFCF90939B0180939A0108954B
:103A200080916C02089590918C02943029F58093D6
:103A3000490270934B0260934A029093E9008FEF22
:103A40009091E800815095FD06C095ED9A95F1F7AB
:103A500000008111F5CF8091E80085FF0DC040E0A6
:103A600050E063E070E089E492E00E94A11F809141
:103A7000E8008E778093E8000895BC0184E00C9400
:103A8000131DBC0183E00C94131D24E02093E90076
:103A90002FEF3091E800215035FD06C035ED3A9505
:103AA000F1F700002111F5CF2091E80025FF0BC0B0
:103AB00040E050E066E070E00E94A11F8091E800C5
:103AC0008E778093E8000895CF93DF9320911401BF
:103AD000222339F020916E0227FF03C060E224E028
:103AE00002C068E021E02093E9002FEF3091E80068
:103AF000215035FD06C035ED3A95F1F70000211152
:103B0000F5CF2091E80025FF1DC0EC018091140144
:103B1000811105C040E050E068E070E003C070E053
:103B200040E050E0CE010E94A11F8091E8008E7716
:103B30008093E80080E2FE01ACE4B2E001900D92D7
:103B40008A95E1F7DF91CF910895CF93603219F50F
:103B500020918C022430F9F4C091E900CF703091AB
:103B6000EC00232F217030FD20E8C22B22E02093AF
:103B7000E9002091E80020FF0BC040E050E060E247
:103B800070E00E94A11F8091E8008E778093E8008A
:103B9000CF70C093E900CF91089580918B0281117D
:103BA00009C00E947D210E94DA218091E200846098
:103BB0008093E200089510928B020895089508956D
:103BC000089542E061EC81E00E94F62042E261EC5F
:103BD00084E00E94F62042E261EC82E00E94F6203E
:103BE00042E260EC83E00C94F62080918E028330F8
:103BF00009F462C030F4813071F0823009F49BC066
:103C000008958A3009F487C08B3009F46DC089307B
:103C100009F0A9C020C080918D02813A09F0A3C0AB
:103C20008091E800877F8093E800809191029091D5
:103C30009202892B21F460E28CE492E003C060E000
:103C400080E090E070E00E9437208091E8008B7760
:103C50008093E800089580918D02813209F083C03D
:103C60008091910290919202009719F0029709F0C9
:103C70007AC08091E800877F8093E8008091E80017
:103C800082FD05C080918C028111F8CF6CC020911B
:103C9000F3008091F20090E0922B029729F480913A
:103CA000F1008B7F813021F48091F10080936C02D0
:103CB0008091E8008B7753C080918D02813A09F0A2
:103CC00052C08091910290919202892B09F04BC0D1
:103CD0008091E800877F8093E8008091E80080FF72
:103CE000FCCF8091140136C080918D028132D9F5CC
:103CF0008091910290919202892BA9F58091E80020
:103D0000877F8093E8000E942B2180918F0280930F
:103D100014010C94D30880918D02813221F5809199
:103D2000E800877F8093E8000E942B218091900219
:103D300080936D02089580918D02813AA1F4809163
:103D4000E800877F8093E8008091E80080FFFCCF47
:103D500080916D028093F1008091E8008E778093CE
:103D6000E8000C942B21089584B7877F84BF0FB699
:103D7000F894A8958091600088618093600010920B
:103D800060000FBE90E080E80FB6F8948093610069
:103D9000909361000FBE0C94080F0E947D210E9439
:103DA000DA21E2EEF0E080818460808378940E94E2
:103DB0006F240E94160F8AE091E00C94EE1ACF93C4
:103DC000DF93CDB7DEB7A0970FB6F894DEBF0FBE76
:103DD000CDBF80918C028530A9F480918C02853012
:103DE00079F40E94301C80918A028823B1F30E94EA
:103DF000171C882391F30E948B1F0E94D308EDCFDC
:103E00000E94601C0E941E0F80918C02843011F56C
:103E100083E08093E9008091E80082FF1BC08091DD
:103E2000E80085FF0AC040E050E060E270E0CE01AB
:103E300001960E94EC1F91E001C090E08091E800A3
:103E40008B778093E800992329F060E2CE010196F8
:103E50000E949016A0960FB6F894DEBF0FBECDBF9D
:103E6000DF91CF9108950C94351F292F33272330EC
:103E70003105C9F060F42130310581F0223031057F
:103E800009F041C08BE590E02AE434E040C02132E3
:103E90003105E1F02232310531F135C082E190E0A7
:103EA00025EA34E034C099278130910549F028F0A3
:103EB000029749F5E2E2F4E005C0E6E4F4E002C06E
:103EC000E2E3F4E0849190E09F0121C0633071054A
:103ED000D0F4660F771FFB01EC56FE4F2081318135
:103EE00089E090E014C06330710568F4FB01EE0FC7
:103EF000FF1FE257FE4F20813181FB01E557FE4F46
:103F0000808190E004C080E090E020E030E0FA01A1
:103F100031832083089580E189BD82E189BD09B4A0
:103F200000FEFDCF8091D8008F7D8093D8008091D6
:103F3000E00082608093E0008091E00081FDFCCF92
:103F40000895CF92DF92EF92FF920F931F93CF933A
:103F5000DF93EC018B017A010E944A21811133C069
:103F6000E114F10439F0F70180819181081B190BEC
:103F7000C80FD91FC12CD12C0115110519F1809141
:103F8000E80085FD16C08091E8008E778093E800F8
:103F9000E114F10449F0F70180819181C80ED91E26
:103FA000D182C08285E00FC00E944A21882321F37C
:103FB0000AC089918093F10001501109FFEFCF1AD7
:103FC000DF0ADACF80E0DF91CF911F910F91FF9050
:103FD000EF90DF90CF900895CF92DF92EF92FF9213
:103FE0000F931F93CF93DF93EC018B017A010E9413
:103FF0004A21811133C0E114F10439F0F7018081C5
:104000009181081B190BC80FD91FC12CD12C011588
:10401000110519F18091E80085FD16C08091E80036
:104020008B778093E800E114F10449F0F701808177
:104030009181C80ED91ED182C08285E00FC00E9436
:104040004A21882321F30AC08091F100899301500D
:104050001109FFEFCF1ADF0ADACF80E0DF91CF91AD
:104060001F910F91FF90EF90DF90CF9008952091D6
:104070009302309194022617370748F061157105B5
:1040800039F42091E8002E772093E80001C0B901AF
:10409000FC0120E06115710579F180918C02882383
:1040A000F1F18530F1F18091E80083FD3CC0809111
:1040B000E80082FD2EC08091E80080FFEBCF2091C8
:1040C000F3008091F20090E0922B6115710551F0A0
:1040D0008830910538F421912093F10061507109E5
:1040E0000196F3CF21E0089709F020E08091E800E5
:1040F0008E778093E800CECF2111CFCF0AC0809178
:104100008C02882361F0853061F08091E80083FDA6
:104110000AC08091E80082FFF2CF80E0089582E03B
:10412000089583E0089581E00895209193023091ED
:1041300094022617370748F06115710539F420916C
:10414000E8002E772093E80001C0B901FC0120E0CF
:104150006115710591F180918C02882309F440C0AA
:10416000853009F43FC08091E80083FD3DC0809117
:10417000E80082FD2FC08091E80080FFE9CF209108
:10418000F3008091F20090E0922B6115710559F0D7
:104190008830910540F424912093F10031966150CC
:1041A00071090196F2CF21E0089709F020E0809193
:1041B000E8008E778093E800CBCF2111CCCF0AC0E6
:1041C00080918C02882361F0853061F08091E80055
:1041D00083FD0AC08091E80082FFF2CF80E008955D
:1041E00082E0089583E0089581E00895982F973044
:1041F00068F59093E900981739F07091EC002091E0
:10420000ED005091F00003C0242F762F50E021FDE7
:1042100002C09F5FECCF3091EB003E7F3093EB000C
:104220003091ED003D7F3093ED003091EB00316037
:104230003093EB007093EC002093ED005093F0006E
:104240002091EE0027FDE5CF80E008958F708093E8
:10425000E90081E0089580918D0287FF11C080916F
:10426000E80082FD05C080918C028111F8CF11C059
:104270008091E8008B770BC080918C02882349F0F5
:104280008091E80080FFF8CF8091E8008E778093DE
:10429000E80008952091E4003091E50095E6409112
:1042A000EC00842F817040FF23C08091E80080FDE6
:1042B0001DC080918C02882399F0853099F08091FF
:1042C000EB0085FD11C04091E4005091E5002417FA
:1042D000350729F3915011F09A01E1CF84E0089558
:1042E00082E0089583E0089581E0089580E00895D4
:1042F0004091E80042FFDDCF08950E94EB210E942B
:10430000F321E0EEF0E0808181608083E8EDF0E071
:1043100080818F77808319BCA7EDB0E08C918E7F70
:104320008C9380818F7E808310928B0208950F93EF
:104330001F93CF93DF930E94EB210E94F321C8EDDE
:10434000D0E088818F77888388818068888388819E
:104350008F7D888319BC10928C0210928802109273
:104360008A021092890200EE10E0F80180818B7FB2
:10437000808388818160888342E060E080E00E94E1
:10438000F620E1EEF0E080818E7F8083E2EEF0E0C7
:10439000808181608083808188608083F801808152
:1043A0008E7F8083888180618883DF91CF911F9188
:1043B0000F910895E8EDF0E080818F7E8083E7ED36
:1043C000F0E080818160808384E082BF81E080931F
:1043D0008B020C949721E8EDF0E080818E7F808342
:1043E0001092E20008951092DA001092E100089510
:1043F0001F920F920FB60F9211242F933F934F935A
:104400005F936F937F938F939F93AF93BF93EF933C
:10441000FF938091E10082FF0BC08091E20082FF58
:1044200007C08091E1008B7F8093E1000E946E24A1
:104430008091DA0080FF1FC08091D80080FF1BC0F0
:104440008091DA008E7F8093DA008091D90080FF1E
:104450000DC080E189BD82E189BD09B400FEFDCFB8
:1044600081E080938C020E94CD1D05C019BC109282
:104470008C020E94DB1D8091E10080FF19C08091B9
:10448000E20080FF15C08091E2008E7F8093E20001
:104490008091E20080618093E2008091D800806288
:1044A0008093D80019BC85E080938C020E94DF1DA8
:1044B0008091E10084FF30C08091E20084FF2CC035
:1044C00080E189BD82E189BD09B400FEFDCF809104
:1044D000D8008F7D8093D8008091E1008F7E8093FB
:1044E000E1008091E2008F7E8093E2008091E20003
:1044F00081608093E20080918802882311F084E03B
:1045000007C08091E30087FD02C081E001C083E025
:1045100080938C020E94E01D8091E10083FF29C0FE
:104520008091E20083FF25C08091E100877F809326
:10453000E10082E080938C02109288028091E10079
:104540008E7F8093E1008091E2008E7F8093E20075
:104550008091E20080618093E20042E060E080E0D0
:104560000E94F6208091F00088608093F0000E9405
:10457000DE1DFF91EF91BF91AF919F918F917F9140
:104580006F915F914F913F912F910F900FBE0F90C0
:104590001F9018951F920F920FB60F9211242F9310
:1045A0003F934F935F936F937F938F939F93AF93BB
:1045B000BF93CF93DF93EF93FF93C091E900CF7048
:1045C0008091EC00D82FD17080FDD0E81092E900E6
:1045D0008091F000877F8093F00078940E940E23F2
:1045E0001092E9008091F00088608093F000CD2B5C
:1045F000CF70C093E900FF91EF91DF91CF91BF9110
:10460000AF919F918F917F916F915F914F913F916A
:104610002F910F900FBE0F901F9018951F93CF935F
:10462000DF93CDB7DEB7AA970FB6F894DEBF0FBE03
:10463000CDBFEDE8F2E08091F100819322E0E53911
:10464000F207C9F70E94F51D8091E80083FF2EC193
:1046500080918D0290918E02492F50E04A30510591
:1046600008F024C1FA01ED57FF4F0C949E248038C6
:1046700021F0823809F01AC108C080918902909116
:104680008A02992389F082600FC0809191028F7015
:10469000873008F00BC18093E9008091EB0085FB27
:1046A000882780F91092E9009091E800977F909315
:1046B000E8008093F1001092F100D1C0282F2D7FE7
:1046C00009F0F4C0882319F0823061F0EFC08091C6
:1046D0008F02813009F0EAC0933009F080E08093C6
:1046E0008A022EC080918F0281112AC0809191028E
:1046F0008F702FEF280F263008F0D8C08093E90084
:104700002091EB0020FF1CC0933021F48091EB003E
:10471000806214C09091EB0090619093EB0021E0D7
:1047200030E0A90102C0440F551F8A95E2F740937B
:10473000EA001092EA008091EB0088608093EB0021
:104740001092E9008091E800877F8093E8000E9442
:104750002B21ACC08111AAC010918F021F778091CC
:10476000E3008078812B8093E3008091E800877FCD
:104770008093E8000E942B218091E80080FFFCCF0D
:104780008091E30080688093E300111102C082E011
:1047900001C083E080938C0289C08058823008F089
:1047A00085C080918F02909190028C3D53E09507D7
:1047B00079F583E08A838AE289834FB7F894DE0132
:1047C000139620E03EE051E2E32FF0E050935700D3
:1047D000E49120FF03C0E295EF703F5FEF708E2FF2
:1047E00090E0EA3010F0C79601C0C0968D939D937B
:1047F0002F5F243149F74FBF8091E800877F809376
:10480000E8006AE270E0CE0101960E94372016C0EF
:104810006091910270919202AE014F5F5F4F0E94D2
:10482000331FBC01892B09F441C09091E800977FA8
:104830009093E80089819A810E9495208091E800F8
:104840008B778093E80032C0803881F58091E80052
:10485000877F8093E800809188028093F1008091A7
:10486000E8008E7772CF811121C080918F029091E4
:10487000900299270297D4F48091E800877F809373
:10488000E80080918F02809388020E942B21809102
:104890008802811106C08091E30087FD02C081E09B
:1048A00001C084E080938C020E94E11D8091E800A9
:1048B00083FF0AC08091E800877F8093E8008091A1
:1048C000EB0080628093EB00AA960FB6F894DEBFEF
:1048D0000FBECDBFDF91CF911F9108950895CF9363
:1048E00080918C028823A1F0C091E900CF70909153
:1048F000EC00892F817090FD80E8C82B1092E900B0
:104900008091E80083FD0E940E23CF70C093E900E0
:10491000CF91089597FB072E16F4009407D077FDEA
:1049200009D00E94AB2407FC05D03EF490958195F8
:104930009F4F0895709561957F4F0895EE0FFF1F6B
:104940000590F491E02D0994692796276927782727
:10495000872778270895AA1BBB1B51E107C0AA1F10
:10496000BB1FA617B70710F0A61BB70B881F991F10
:104970005A95A9F780959095BC01CD010895FB014A
:10498000DC0104C08D910190801921F44150504008
:10499000C8F7881B990B0895F999FECF92BD81BD88
:1049A000F89A992780B50895A8E1B0E042E050E078
:1049B0000C940025262FF999FECF92BD81BDF89A5F
:1049C000019700B4021639F01FBA20BD0FB6F89453
:1049D000FA9AF99A0FBE08950396272F0E94DB24B6
:1049E0000E94DA24252F0E94DB24242F0C94DB2440
:1049F0000196272F0E94DB240C94DA24DC01CB01E2
:104A0000FC01F999FECF06C0F2BDE1BDF89A3196DE
:104A100000B40D9241505040B8F70895F894FFCF7C
:104A2000F7012808641E140A321E101D641D451D5E
:104A3000411D3D1D01E200E900EA00B500B600B7E6
:104A400000CD008301CC008A019201940121022350
:104A50000224022502260227022A02B300B4006FB4
:104A6000007000818283E200E900EA00B500B60030
:104A7000B700CD008301CC008A019201940121028C
:104A8000230224022502260227022A02B300B400D0
:104A90006F007000818283F5F630F4F1909192936B
:104AA00095949697346766363537F74022B68F056A
:0A4AB000B704D9045C0475049504F2
:00000001FF
